{
  "_format": "hh-sol-artifact-1",
  "contractName": "ElectionMain",
  "sourceName": "contracts/ElectionMain.sol",
  "abi": [
    {
      "inputs": [
        {
          "internalType": "address",
          "name": "_merkleAddress",
          "type": "address"
        }
      ],
      "stateMutability": "nonpayable",
      "type": "constructor"
    },
    {
      "inputs": [
        {
          "internalType": "uint256",
          "name": "",
          "type": "uint256"
        }
      ],
      "name": "candidates",
      "outputs": [
        {
          "internalType": "address",
          "name": "candidateAddress",
          "type": "address"
        },
        {
          "internalType": "string",
          "name": "name",
          "type": "string"
        },
        {
          "internalType": "uint256",
          "name": "voteCount",
          "type": "uint256"
        }
      ],
      "stateMutability": "view",
      "type": "function"
    },
    {
      "inputs": [],
      "name": "candidatesCount",
      "outputs": [
        {
          "internalType": "uint256",
          "name": "",
          "type": "uint256"
        }
      ],
      "stateMutability": "view",
      "type": "function"
    },
    {
      "inputs": [],
      "name": "externalNullifer",
      "outputs": [
        {
          "internalType": "string",
          "name": "",
          "type": "string"
        }
      ],
      "stateMutability": "view",
      "type": "function"
    },
    {
      "inputs": [],
      "name": "getMerkleRoot",
      "outputs": [
        {
          "internalType": "bytes32",
          "name": "",
          "type": "bytes32"
        }
      ],
      "stateMutability": "view",
      "type": "function"
    },
    {
      "inputs": [
        {
          "internalType": "string",
          "name": "_secret",
          "type": "string"
        }
      ],
      "name": "getVoterProof",
      "outputs": [
        {
          "internalType": "bytes32[]",
          "name": "",
          "type": "bytes32[]"
        },
        {
          "internalType": "uint256[]",
          "name": "",
          "type": "uint256[]"
        }
      ],
      "stateMutability": "view",
      "type": "function"
    },
    {
      "inputs": [
        {
          "internalType": "string",
          "name": "str1",
          "type": "string"
        },
        {
          "internalType": "string",
          "name": "str2",
          "type": "string"
        }
      ],
      "name": "hashFunction",
      "outputs": [
        {
          "internalType": "bytes32",
          "name": "",
          "type": "bytes32"
        }
      ],
      "stateMutability": "pure",
      "type": "function"
    },
    {
      "inputs": [],
      "name": "merkleForest",
      "outputs": [
        {
          "internalType": "contract MerkleTree",
          "name": "",
          "type": "address"
        }
      ],
      "stateMutability": "view",
      "type": "function"
    },
    {
      "inputs": [
        {
          "internalType": "string",
          "name": "_name",
          "type": "string"
        },
        {
          "internalType": "string",
          "name": "_secret",
          "type": "string"
        }
      ],
      "name": "registerVoter",
      "outputs": [],
      "stateMutability": "nonpayable",
      "type": "function"
    },
    {
      "inputs": [],
      "name": "treeID",
      "outputs": [
        {
          "internalType": "uint256",
          "name": "",
          "type": "uint256"
        }
      ],
      "stateMutability": "view",
      "type": "function"
    },
    {
      "inputs": [
        {
          "internalType": "address",
          "name": "",
          "type": "address"
        }
      ],
      "name": "voters",
      "outputs": [
        {
          "internalType": "address",
          "name": "voterAddress",
          "type": "address"
        },
        {
          "internalType": "string",
          "name": "name",
          "type": "string"
        },
        {
          "internalType": "bool",
          "name": "isExists",
          "type": "bool"
        }
      ],
      "stateMutability": "view",
      "type": "function"
    }
  ],
  "bytecode": "0x60806040526040518060400160405280601281526020017f65787465726e616c5f6e756c6c69666965720000000000000000000000000000815250600390816200004a91906200043c565b503480156200005857600080fd5b5060405162001e4838038062001e4883398181016040528101906200007e91906200058d565b806000806101000a81548173ffffffffffffffffffffffffffffffffffffffff021916908373ffffffffffffffffffffffffffffffffffffffff16021790555060008054906101000a900473ffffffffffffffffffffffffffffffffffffffff16600160006101000a81548173ffffffffffffffffffffffffffffffffffffffff021916908373ffffffffffffffffffffffffffffffffffffffff160217905550600160009054906101000a900473ffffffffffffffffffffffffffffffffffffffff1673ffffffffffffffffffffffffffffffffffffffff1663d59a9e066040518163ffffffff1660e01b81526004016020604051808303816000875af11580156200018f573d6000803e3d6000fd5b505050506040513d601f19601f82011682018060405250810190620001b59190620005f0565b6002819055505062000622565b600081519050919050565b7f4e487b7100000000000000000000000000000000000000000000000000000000600052604160045260246000fd5b7f4e487b7100000000000000000000000000000000000000000000000000000000600052602260045260246000fd5b600060028204905060018216806200024457607f821691505b6020821081036200025a5762000259620001fc565b5b50919050565b60008190508160005260206000209050919050565b60006020601f8301049050919050565b600082821b905092915050565b600060088302620002c47fffffffffffffffffffffffffffffffffffffffffffffffffffffffffffffffff8262000285565b620002d0868362000285565b95508019841693508086168417925050509392505050565b6000819050919050565b6000819050919050565b60006200031d620003176200031184620002e8565b620002f2565b620002e8565b9050919050565b6000819050919050565b6200033983620002fc565b62000351620003488262000324565b84845462000292565b825550505050565b600090565b6200036862000359565b620003758184846200032e565b505050565b5b818110156200039d57620003916000826200035e565b6001810190506200037b565b5050565b601f821115620003ec57620003b68162000260565b620003c18462000275565b81016020851015620003d1578190505b620003e9620003e08562000275565b8301826200037a565b50505b505050565b600082821c905092915050565b60006200041160001984600802620003f1565b1980831691505092915050565b60006200042c8383620003fe565b9150826002028217905092915050565b6200044782620001c2565b67ffffffffffffffff811115620004635762000462620001cd565b5b6200046f82546200022b565b6200047c828285620003a1565b600060209050601f831160018114620004b457600084156200049f578287015190505b620004ab85826200041e565b8655506200051b565b601f198416620004c48662000260565b60005b82811015620004ee57848901518255600182019150602085019450602081019050620004c7565b868310156200050e57848901516200050a601f891682620003fe565b8355505b6001600288020188555050505b505050505050565b600080fd5b600073ffffffffffffffffffffffffffffffffffffffff82169050919050565b6000620005558262000528565b9050919050565b620005678162000548565b81146200057357600080fd5b50565b60008151905062000587816200055c565b92915050565b600060208284031215620005a657620005a562000523565b5b6000620005b68482850162000576565b91505092915050565b620005ca81620002e8565b8114620005d657600080fd5b50565b600081519050620005ea81620005bf565b92915050565b60006020828403121562000609576200060862000523565b5b60006200061984828501620005d9565b91505092915050565b61181680620006326000396000f3fe608060405234801561001057600080fd5b506004361061009e5760003560e01c806364d4f2601161006657806364d4f260146101725780638a4c88471461019057806391652936146101ac578063a3ec138d146101ca578063e3ab0b8e146101fc5761009e565b80632d35a8a2146100a35780633477ee2e146100c157806349590657146100f3578063581ea2c1146101115780635ba1610314610141575b600080fd5b6100ab61021a565b6040516100b89190610a1a565b60405180910390f35b6100db60048036038101906100d69190610a75565b610220565b6040516100ea93929190610b73565b60405180910390f35b6100fb6102f2565b6040516101089190610bca565b60405180910390f35b61012b60048036038101906101269190610d1a565b610397565b6040516101389190610bca565b60405180910390f35b61015b60048036038101906101569190610d92565b610417565b604051610169929190610f57565b60405180910390f35b61017a61063b565b6040516101879190610f8e565b60405180910390f35b6101aa60048036038101906101a59190610d1a565b6106c9565b005b6101b46108f6565b6040516101c19190610a1a565b60405180910390f35b6101e460048036038101906101df9190610fdc565b6108fc565b6040516101f393929190611024565b60405180910390f35b6102046109db565b60405161021191906110c1565b60405180910390f35b60065481565b60046020528060005260406000206000915090508060000160009054906101000a900473ffffffffffffffffffffffffffffffffffffffff16908060010180546102699061110b565b80601f01602080910402602001604051908101604052809291908181526020018280546102959061110b565b80156102e25780601f106102b7576101008083540402835291602001916102e2565b820191906000526020600020905b8154815290600101906020018083116102c557829003601f168201915b5050505050908060020154905083565b6000600160009054906101000a900473ffffffffffffffffffffffffffffffffffffffff1673ffffffffffffffffffffffffffffffffffffffff16639b24b3b06002546040518263ffffffff1660e01b81526004016103519190610a1a565b602060405180830381865afa15801561036e573d6000803e3d6000fd5b505050506040513d601f19601f820116820180604052508101906103929190611168565b905090565b60008083836040516020016103ad9291906111d1565b60405160208183030381529060405290506002816040516103ce919061123c565b602060405180830381855afa1580156103eb573d6000803e3d6000fd5b5050506040513d601f19601f8201168201806040525081019061040e9190611168565b91505092915050565b606080600560003373ffffffffffffffffffffffffffffffffffffffff1673ffffffffffffffffffffffffffffffffffffffff16815260200190815260200160002060020160009054906101000a900460ff166104a9576040517f08c379a00000000000000000000000000000000000000000000000000000000081526004016104a09061129f565b60405180910390fd5b600061057f600560003373ffffffffffffffffffffffffffffffffffffffff1673ffffffffffffffffffffffffffffffffffffffff16815260200190815260200160002060010180546104fb9061110b565b80601f01602080910402602001604051908101604052809291908181526020018280546105279061110b565b80156105745780601f1061054957610100808354040283529160200191610574565b820191906000526020600020905b81548152906001019060200180831161055757829003601f168201915b505050505085610397565b9050600080600160009054906101000a900473ffffffffffffffffffffffffffffffffffffffff1673ffffffffffffffffffffffffffffffffffffffff1663310557c6600254856040518363ffffffff1660e01b81526004016105e39291906112bf565b600060405180830381865afa158015610600573d6000803e3d6000fd5b505050506040513d6000823e3d601f19601f820116820180604052508101906106299190611488565b91509150818194509450505050915091565b600380546106489061110b565b80601f01602080910402602001604051908101604052809291908181526020018280546106749061110b565b80156106c15780601f10610696576101008083540402835291602001916106c1565b820191906000526020600020905b8154815290600101906020018083116106a457829003601f168201915b505050505081565b600560003373ffffffffffffffffffffffffffffffffffffffff1673ffffffffffffffffffffffffffffffffffffffff16815260200190815260200160002060020160009054906101000a900460ff1615610759576040517f08c379a00000000000000000000000000000000000000000000000000000000081526004016107509061154c565b60405180910390fd5b600060405180606001604052803373ffffffffffffffffffffffffffffffffffffffff16815260200184815260200160011515815250905080600560003373ffffffffffffffffffffffffffffffffffffffff1673ffffffffffffffffffffffffffffffffffffffff16815260200190815260200160002060008201518160000160006101000a81548173ffffffffffffffffffffffffffffffffffffffff021916908373ffffffffffffffffffffffffffffffffffffffff160217905550602082015181600101908161082d919061170e565b5060408201518160020160006101000a81548160ff021916908315150217905550905050600061085d8484610397565b9050600160009054906101000a900473ffffffffffffffffffffffffffffffffffffffff1673ffffffffffffffffffffffffffffffffffffffff16634a1aec07600254836040518363ffffffff1660e01b81526004016108be9291906112bf565b600060405180830381600087803b1580156108d857600080fd5b505af11580156108ec573d6000803e3d6000fd5b5050505050505050565b60025481565b60056020528060005260406000206000915090508060000160009054906101000a900473ffffffffffffffffffffffffffffffffffffffff16908060010180546109459061110b565b80601f01602080910402602001604051908101604052809291908181526020018280546109719061110b565b80156109be5780601f10610993576101008083540402835291602001916109be565b820191906000526020600020905b8154815290600101906020018083116109a157829003601f168201915b5050505050908060020160009054906101000a900460ff16905083565b600160009054906101000a900473ffffffffffffffffffffffffffffffffffffffff1681565b6000819050919050565b610a1481610a01565b82525050565b6000602082019050610a2f6000830184610a0b565b92915050565b6000604051905090565b600080fd5b600080fd5b610a5281610a01565b8114610a5d57600080fd5b50565b600081359050610a6f81610a49565b92915050565b600060208284031215610a8b57610a8a610a3f565b5b6000610a9984828501610a60565b91505092915050565b600073ffffffffffffffffffffffffffffffffffffffff82169050919050565b6000610acd82610aa2565b9050919050565b610add81610ac2565b82525050565b600081519050919050565b600082825260208201905092915050565b60005b83811015610b1d578082015181840152602081019050610b02565b60008484015250505050565b6000601f19601f8301169050919050565b6000610b4582610ae3565b610b4f8185610aee565b9350610b5f818560208601610aff565b610b6881610b29565b840191505092915050565b6000606082019050610b886000830186610ad4565b8181036020830152610b9a8185610b3a565b9050610ba96040830184610a0b565b949350505050565b6000819050919050565b610bc481610bb1565b82525050565b6000602082019050610bdf6000830184610bbb565b92915050565b600080fd5b600080fd5b7f4e487b7100000000000000000000000000000000000000000000000000000000600052604160045260246000fd5b610c2782610b29565b810181811067ffffffffffffffff82111715610c4657610c45610bef565b5b80604052505050565b6000610c59610a35565b9050610c658282610c1e565b919050565b600067ffffffffffffffff821115610c8557610c84610bef565b5b610c8e82610b29565b9050602081019050919050565b82818337600083830152505050565b6000610cbd610cb884610c6a565b610c4f565b905082815260208101848484011115610cd957610cd8610bea565b5b610ce4848285610c9b565b509392505050565b600082601f830112610d0157610d00610be5565b5b8135610d11848260208601610caa565b91505092915050565b60008060408385031215610d3157610d30610a3f565b5b600083013567ffffffffffffffff811115610d4f57610d4e610a44565b5b610d5b85828601610cec565b925050602083013567ffffffffffffffff811115610d7c57610d7b610a44565b5b610d8885828601610cec565b9150509250929050565b600060208284031215610da857610da7610a3f565b5b600082013567ffffffffffffffff811115610dc657610dc5610a44565b5b610dd284828501610cec565b91505092915050565b600081519050919050565b600082825260208201905092915050565b6000819050602082019050919050565b610e1081610bb1565b82525050565b6000610e228383610e07565b60208301905092915050565b6000602082019050919050565b6000610e4682610ddb565b610e508185610de6565b9350610e5b83610df7565b8060005b83811015610e8c578151610e738882610e16565b9750610e7e83610e2e565b925050600181019050610e5f565b5085935050505092915050565b600081519050919050565b600082825260208201905092915050565b6000819050602082019050919050565b610ece81610a01565b82525050565b6000610ee08383610ec5565b60208301905092915050565b6000602082019050919050565b6000610f0482610e99565b610f0e8185610ea4565b9350610f1983610eb5565b8060005b83811015610f4a578151610f318882610ed4565b9750610f3c83610eec565b925050600181019050610f1d565b5085935050505092915050565b60006040820190508181036000830152610f718185610e3b565b90508181036020830152610f858184610ef9565b90509392505050565b60006020820190508181036000830152610fa88184610b3a565b905092915050565b610fb981610ac2565b8114610fc457600080fd5b50565b600081359050610fd681610fb0565b92915050565b600060208284031215610ff257610ff1610a3f565b5b600061100084828501610fc7565b91505092915050565b60008115159050919050565b61101e81611009565b82525050565b60006060820190506110396000830186610ad4565b818103602083015261104b8185610b3a565b905061105a6040830184611015565b949350505050565b6000819050919050565b600061108761108261107d84610aa2565b611062565b610aa2565b9050919050565b60006110998261106c565b9050919050565b60006110ab8261108e565b9050919050565b6110bb816110a0565b82525050565b60006020820190506110d660008301846110b2565b92915050565b7f4e487b7100000000000000000000000000000000000000000000000000000000600052602260045260246000fd5b6000600282049050600182168061112357607f821691505b602082108103611136576111356110dc565b5b50919050565b61114581610bb1565b811461115057600080fd5b50565b6000815190506111628161113c565b92915050565b60006020828403121561117e5761117d610a3f565b5b600061118c84828501611153565b91505092915050565b600081905092915050565b60006111ab82610ae3565b6111b58185611195565b93506111c5818560208601610aff565b80840191505092915050565b60006111dd82856111a0565b91506111e982846111a0565b91508190509392505050565b600081519050919050565b600081905092915050565b6000611216826111f5565b6112208185611200565b9350611230818560208601610aff565b80840191505092915050565b6000611248828461120b565b915081905092915050565b7f566f74657220646f6573206e6f74206578697374000000000000000000000000600082015250565b6000611289601483610aee565b915061129482611253565b602082019050919050565b600060208201905081810360008301526112b88161127c565b9050919050565b60006040820190506112d46000830185610a0b565b6112e16020830184610bbb565b9392505050565b600067ffffffffffffffff82111561130357611302610bef565b5b602082029050602081019050919050565b600080fd5b600061132c611327846112e8565b610c4f565b9050808382526020820190506020840283018581111561134f5761134e611314565b5b835b8181101561137857806113648882611153565b845260208401935050602081019050611351565b5050509392505050565b600082601f83011261139757611396610be5565b5b81516113a7848260208601611319565b91505092915050565b600067ffffffffffffffff8211156113cb576113ca610bef565b5b602082029050602081019050919050565b6000815190506113eb81610a49565b92915050565b60006114046113ff846113b0565b610c4f565b9050808382526020820190506020840283018581111561142757611426611314565b5b835b81811015611450578061143c88826113dc565b845260208401935050602081019050611429565b5050509392505050565b600082601f83011261146f5761146e610be5565b5b815161147f8482602086016113f1565b91505092915050565b6000806040838503121561149f5761149e610a3f565b5b600083015167ffffffffffffffff8111156114bd576114bc610a44565b5b6114c985828601611382565b925050602083015167ffffffffffffffff8111156114ea576114e9610a44565b5b6114f68582860161145a565b9150509250929050565b7f566f74657220616c726561647920657869737473000000000000000000000000600082015250565b6000611536601483610aee565b915061154182611500565b602082019050919050565b6000602082019050818103600083015261156581611529565b9050919050565b60008190508160005260206000209050919050565b60006020601f8301049050919050565b600082821b905092915050565b6000600883026115ce7fffffffffffffffffffffffffffffffffffffffffffffffffffffffffffffffff82611591565b6115d88683611591565b95508019841693508086168417925050509392505050565b600061160b61160661160184610a01565b611062565b610a01565b9050919050565b6000819050919050565b611625836115f0565b61163961163182611612565b84845461159e565b825550505050565b600090565b61164e611641565b61165981848461161c565b505050565b5b8181101561167d57611672600082611646565b60018101905061165f565b5050565b601f8211156116c2576116938161156c565b61169c84611581565b810160208510156116ab578190505b6116bf6116b785611581565b83018261165e565b50505b505050565b600082821c905092915050565b60006116e5600019846008026116c7565b1980831691505092915050565b60006116fe83836116d4565b9150826002028217905092915050565b61171782610ae3565b67ffffffffffffffff8111156117305761172f610bef565b5b61173a825461110b565b611745828285611681565b600060209050601f8311600181146117785760008415611766578287015190505b61177085826116f2565b8655506117d8565b601f1984166117868661156c565b60005b828110156117ae57848901518255600182019150602085019450602081019050611789565b868310156117cb57848901516117c7601f8916826116d4565b8355505b6001600288020188555050505b50505050505056fea26469706673582212202e3d2f38818d56d351098ae703e613dfd5e259f3bfc9f4cb161b5cec5501e46564736f6c63430008180033",
  "linkReferences": {},
  "deployedLinkReferences": {}
}