{
  "_format": "hh-sol-artifact-1",
  "contractName": "HashContract",
  "sourceName": "contracts/HashContract.sol",
  "abi": [
    {
      "inputs": [
        {
          "internalType": "bytes32",
          "name": "left",
          "type": "bytes32"
        },
        {
          "internalType": "bytes32",
          "name": "right",
          "type": "bytes32"
        }
      ],
      "name": "hashByte32",
      "outputs": [
        {
          "internalType": "bytes32",
          "name": "",
          "type": "bytes32"
        }
      ],
      "stateMutability": "pure",
      "type": "function"
    },
    {
      "inputs": [
        {
          "internalType": "bytes32",
          "name": "data",
          "type": "bytes32"
        }
      ],
      "name": "hashSingleByte",
      "outputs": [
        {
          "internalType": "bytes32",
          "name": "",
          "type": "bytes32"
        }
      ],
      "stateMutability": "pure",
      "type": "function"
    },
    {
      "inputs": [
        {
          "internalType": "string",
          "name": "str",
          "type": "string"
        }
      ],
      "name": "hashSingleString",
      "outputs": [
        {
          "internalType": "bytes32",
          "name": "",
          "type": "bytes32"
        }
      ],
      "stateMutability": "pure",
      "type": "function"
    },
    {
      "inputs": [
        {
          "internalType": "string",
          "name": "str1",
          "type": "string"
        },
        {
          "internalType": "string",
          "name": "str2",
          "type": "string"
        }
      ],
      "name": "hashString",
      "outputs": [
        {
          "internalType": "bytes32",
          "name": "",
          "type": "bytes32"
        }
      ],
      "stateMutability": "pure",
      "type": "function"
    }
  ],
  "bytecode": "0x608060405234801561001057600080fd5b506107ce806100206000396000f3fe608060405234801561001057600080fd5b506004361061004c5760003560e01c80639d233bb414610051578063d89c381c14610081578063e006d89d146100b1578063f2e22517146100e1575b600080fd5b61006b60048036038101906100669190610456565b610111565b60405161007891906104e7565b60405180910390f35b61009b6004803603810190610096919061052e565b610191565b6040516100a891906104e7565b60405180910390f35b6100cb60048036038101906100c6919061055b565b610209565b6040516100d891906104e7565b60405180910390f35b6100fb60048036038101906100f6919061059b565b610284565b60405161010891906104e7565b60405180910390f35b6000808383604051602001610127929190610655565b604051602081830303815290604052905060028160405161014891906106c0565b602060405180830381855afa158015610165573d6000803e3d6000fd5b5050506040513d601f19601f8201168201806040525081019061018891906106ec565b91505092915050565b60006002826040516020016101a6919061073a565b6040516020818303038152906040526040516101c291906106c0565b602060405180830381855afa1580156101df573d6000803e3d6000fd5b5050506040513d601f19601f8201168201806040525081019061020291906106ec565b9050919050565b600060028383604051602001610220929190610755565b60405160208183030381529060405260405161023c91906106c0565b602060405180830381855afa158015610259573d6000803e3d6000fd5b5050506040513d601f19601f8201168201806040525081019061027c91906106ec565b905092915050565b60006002826040516020016102999190610781565b6040516020818303038152906040526040516102b591906106c0565b602060405180830381855afa1580156102d2573d6000803e3d6000fd5b5050506040513d601f19601f820116820180604052508101906102f591906106ec565b9050919050565b6000604051905090565b600080fd5b600080fd5b600080fd5b600080fd5b6000601f19601f8301169050919050565b7f4e487b7100000000000000000000000000000000000000000000000000000000600052604160045260246000fd5b6103638261031a565b810181811067ffffffffffffffff821117156103825761038161032b565b5b80604052505050565b60006103956102fc565b90506103a1828261035a565b919050565b600067ffffffffffffffff8211156103c1576103c061032b565b5b6103ca8261031a565b9050602081019050919050565b82818337600083830152505050565b60006103f96103f4846103a6565b61038b565b90508281526020810184848401111561041557610414610315565b5b6104208482856103d7565b509392505050565b600082601f83011261043d5761043c610310565b5b813561044d8482602086016103e6565b91505092915050565b6000806040838503121561046d5761046c610306565b5b600083013567ffffffffffffffff81111561048b5761048a61030b565b5b61049785828601610428565b925050602083013567ffffffffffffffff8111156104b8576104b761030b565b5b6104c485828601610428565b9150509250929050565b6000819050919050565b6104e1816104ce565b82525050565b60006020820190506104fc60008301846104d8565b92915050565b61050b816104ce565b811461051657600080fd5b50565b60008135905061052881610502565b92915050565b60006020828403121561054457610543610306565b5b600061055284828501610519565b91505092915050565b6000806040838503121561057257610571610306565b5b600061058085828601610519565b925050602061059185828601610519565b9150509250929050565b6000602082840312156105b1576105b0610306565b5b600082013567ffffffffffffffff8111156105cf576105ce61030b565b5b6105db84828501610428565b91505092915050565b600081519050919050565b600081905092915050565b60005b838110156106185780820151818401526020810190506105fd565b60008484015250505050565b600061062f826105e4565b61063981856105ef565b93506106498185602086016105fa565b80840191505092915050565b60006106618285610624565b915061066d8284610624565b91508190509392505050565b600081519050919050565b600081905092915050565b600061069a82610679565b6106a48185610684565b93506106b48185602086016105fa565b80840191505092915050565b60006106cc828461068f565b915081905092915050565b6000815190506106e681610502565b92915050565b60006020828403121561070257610701610306565b5b6000610710848285016106d7565b91505092915050565b6000819050919050565b61073461072f826104ce565b610719565b82525050565b60006107468284610723565b60208201915081905092915050565b60006107618285610723565b6020820191506107718284610723565b6020820191508190509392505050565b600061078d8284610624565b91508190509291505056fea2646970667358221220e83ecc2d21b1477a2200abdba5ef6c967600b34e09abbd614e99a1e36689844964736f6c63430008180033",
  "linkReferences": {},
  "deployedLinkReferences": {}
}