{
  "_format": "hh-sol-artifact-1",
  "contractName": "ElectionMain",
  "sourceName": "contracts/ElectionMain.sol",
  "abi": [
    {
      "inputs": [
        {
          "internalType": "address",
          "name": "_merkleAddress",
          "type": "address"
        }
      ],
      "stateMutability": "nonpayable",
      "type": "constructor"
    },
    {
      "inputs": [
        {
          "internalType": "uint256",
          "name": "",
          "type": "uint256"
        }
      ],
      "name": "candidateKeys",
      "outputs": [
        {
          "internalType": "address",
          "name": "",
          "type": "address"
        }
      ],
      "stateMutability": "view",
      "type": "function"
    },
    {
      "inputs": [
        {
          "internalType": "address",
          "name": "",
          "type": "address"
        }
      ],
      "name": "candidates",
      "outputs": [
        {
          "internalType": "string",
          "name": "name",
          "type": "string"
        },
        {
          "internalType": "uint256",
          "name": "voteCount",
          "type": "uint256"
        },
        {
          "internalType": "bool",
          "name": "exists",
          "type": "bool"
        }
      ],
      "stateMutability": "view",
      "type": "function"
    },
    {
      "inputs": [],
      "name": "candidatesCount",
      "outputs": [
        {
          "internalType": "uint256",
          "name": "",
          "type": "uint256"
        }
      ],
      "stateMutability": "view",
      "type": "function"
    },
    {
      "inputs": [
        {
          "internalType": "bytes32[]",
          "name": "_path",
          "type": "bytes32[]"
        },
        {
          "internalType": "uint256[]",
          "name": "_hashDirection",
          "type": "uint256[]"
        },
        {
          "internalType": "bytes32",
          "name": "_leaf",
          "type": "bytes32"
        },
        {
          "internalType": "address",
          "name": "_candidate",
          "type": "address"
        }
      ],
      "name": "castVote",
      "outputs": [],
      "stateMutability": "nonpayable",
      "type": "function"
    },
    {
      "inputs": [],
      "name": "checkIfAdmin",
      "outputs": [
        {
          "internalType": "bool",
          "name": "",
          "type": "bool"
        }
      ],
      "stateMutability": "view",
      "type": "function"
    },
    {
      "inputs": [
        {
          "internalType": "uint256",
          "name": "_num",
          "type": "uint256"
        }
      ],
      "name": "endElection",
      "outputs": [
        {
          "internalType": "uint256",
          "name": "",
          "type": "uint256"
        }
      ],
      "stateMutability": "nonpayable",
      "type": "function"
    },
    {
      "inputs": [],
      "name": "externalNullifer",
      "outputs": [
        {
          "internalType": "string",
          "name": "",
          "type": "string"
        }
      ],
      "stateMutability": "view",
      "type": "function"
    },
    {
      "inputs": [],
      "name": "getAllCandidates",
      "outputs": [
        {
          "internalType": "address[]",
          "name": "",
          "type": "address[]"
        },
        {
          "internalType": "string[]",
          "name": "",
          "type": "string[]"
        }
      ],
      "stateMutability": "view",
      "type": "function"
    },
    {
      "inputs": [],
      "name": "getElectionStatus",
      "outputs": [
        {
          "internalType": "uint256",
          "name": "",
          "type": "uint256"
        }
      ],
      "stateMutability": "view",
      "type": "function"
    },
    {
      "inputs": [],
      "name": "getEntireTree",
      "outputs": [
        {
          "internalType": "bytes32[][]",
          "name": "tree",
          "type": "bytes32[][]"
        }
      ],
      "stateMutability": "view",
      "type": "function"
    },
    {
      "inputs": [],
      "name": "getMerkleRoot",
      "outputs": [
        {
          "internalType": "bytes32",
          "name": "",
          "type": "bytes32"
        }
      ],
      "stateMutability": "view",
      "type": "function"
    },
    {
      "inputs": [
        {
          "internalType": "bytes32",
          "name": "commitment",
          "type": "bytes32"
        }
      ],
      "name": "getVoterProof",
      "outputs": [
        {
          "internalType": "bytes32[]",
          "name": "",
          "type": "bytes32[]"
        },
        {
          "internalType": "uint256[]",
          "name": "",
          "type": "uint256[]"
        }
      ],
      "stateMutability": "view",
      "type": "function"
    },
    {
      "inputs": [
        {
          "internalType": "string",
          "name": "str1",
          "type": "string"
        },
        {
          "internalType": "string",
          "name": "str2",
          "type": "string"
        }
      ],
      "name": "hashFunction",
      "outputs": [
        {
          "internalType": "bytes32",
          "name": "",
          "type": "bytes32"
        }
      ],
      "stateMutability": "pure",
      "type": "function"
    },
    {
      "inputs": [
        {
          "internalType": "address",
          "name": "_addr",
          "type": "address"
        }
      ],
      "name": "isRegisteredCandidate",
      "outputs": [
        {
          "internalType": "bool",
          "name": "",
          "type": "bool"
        }
      ],
      "stateMutability": "view",
      "type": "function"
    },
    {
      "inputs": [
        {
          "internalType": "address",
          "name": "_addr",
          "type": "address"
        }
      ],
      "name": "isRegisteredVoter",
      "outputs": [
        {
          "internalType": "bool",
          "name": "",
          "type": "bool"
        }
      ],
      "stateMutability": "view",
      "type": "function"
    },
    {
      "inputs": [],
      "name": "merkleForest",
      "outputs": [
        {
          "internalType": "contract MerkleTree",
          "name": "",
          "type": "address"
        }
      ],
      "stateMutability": "view",
      "type": "function"
    },
    {
      "inputs": [
        {
          "internalType": "string",
          "name": "_name",
          "type": "string"
        }
      ],
      "name": "registerCandidate",
      "outputs": [],
      "stateMutability": "nonpayable",
      "type": "function"
    },
    {
      "inputs": [
        {
          "internalType": "bytes32",
          "name": "_identitySecret",
          "type": "bytes32"
        }
      ],
      "name": "registerVoter",
      "outputs": [],
      "stateMutability": "nonpayable",
      "type": "function"
    },
    {
      "inputs": [
        {
          "internalType": "uint256",
          "name": "_num",
          "type": "uint256"
        }
      ],
      "name": "startElection",
      "outputs": [
        {
          "internalType": "uint256",
          "name": "",
          "type": "uint256"
        }
      ],
      "stateMutability": "nonpayable",
      "type": "function"
    },
    {
      "inputs": [],
      "name": "status",
      "outputs": [
        {
          "internalType": "uint256",
          "name": "",
          "type": "uint256"
        }
      ],
      "stateMutability": "view",
      "type": "function"
    },
    {
      "inputs": [],
      "name": "tallyVotes",
      "outputs": [
        {
          "internalType": "string[]",
          "name": "",
          "type": "string[]"
        },
        {
          "internalType": "uint256[]",
          "name": "",
          "type": "uint256[]"
        }
      ],
      "stateMutability": "view",
      "type": "function"
    },
    {
      "inputs": [],
      "name": "treeID",
      "outputs": [
        {
          "internalType": "uint256",
          "name": "",
          "type": "uint256"
        }
      ],
      "stateMutability": "view",
      "type": "function"
    },
    {
      "inputs": [
        {
          "internalType": "bytes32[]",
          "name": "_path",
          "type": "bytes32[]"
        },
        {
          "internalType": "uint256[]",
          "name": "_hashDirection",
          "type": "uint256[]"
        },
        {
          "internalType": "bytes32",
          "name": "_leaf",
          "type": "bytes32"
        }
      ],
      "name": "verifyProof",
      "outputs": [
        {
          "internalType": "bool",
          "name": "",
          "type": "bool"
        },
        {
          "internalType": "bool",
          "name": "",
          "type": "bool"
        }
      ],
      "stateMutability": "view",
      "type": "function"
    },
    {
      "inputs": [
        {
          "internalType": "bytes32",
          "name": "_leaf",
          "type": "bytes32"
        }
      ],
      "name": "voteCast",
      "outputs": [
        {
          "internalType": "bool",
          "name": "",
          "type": "bool"
        }
      ],
      "stateMutability": "view",
      "type": "function"
    },
    {
      "inputs": [
        {
          "internalType": "address",
          "name": "",
          "type": "address"
        }
      ],
      "name": "voters",
      "outputs": [
        {
          "internalType": "bool",
          "name": "isExists",
          "type": "bool"
        }
      ],
      "stateMutability": "view",
      "type": "function"
    }
  ],
  "bytecode": "0x60806040526040518060400160405280601281526020017f65787465726e616c5f6e756c6c69666965720000000000000000000000000000815250600590816200004a91906200049e565b503480156200005857600080fd5b50604051620038723803806200387283398181016040528101906200007e9190620005ef565b80600160006101000a81548173ffffffffffffffffffffffffffffffffffffffff021916908373ffffffffffffffffffffffffffffffffffffffff160217905550600160009054906101000a900473ffffffffffffffffffffffffffffffffffffffff16600260006101000a81548173ffffffffffffffffffffffffffffffffffffffff021916908373ffffffffffffffffffffffffffffffffffffffff160217905550600260009054906101000a900473ffffffffffffffffffffffffffffffffffffffff1673ffffffffffffffffffffffffffffffffffffffff1663d59a9e066040518163ffffffff1660e01b81526004016020604051808303816000875af115801562000192573d6000803e3d6000fd5b505050506040513d601f19601f82011682018060405250810190620001b8919062000652565b6003819055506001600460003373ffffffffffffffffffffffffffffffffffffffff1673ffffffffffffffffffffffffffffffffffffffff16815260200190815260200160002060006101000a81548160ff021916908315150217905550600080819055505062000684565b600081519050919050565b7f4e487b7100000000000000000000000000000000000000000000000000000000600052604160045260246000fd5b7f4e487b7100000000000000000000000000000000000000000000000000000000600052602260045260246000fd5b60006002820490506001821680620002a657607f821691505b602082108103620002bc57620002bb6200025e565b5b50919050565b60008190508160005260206000209050919050565b60006020601f8301049050919050565b600082821b905092915050565b600060088302620003267fffffffffffffffffffffffffffffffffffffffffffffffffffffffffffffffff82620002e7565b620003328683620002e7565b95508019841693508086168417925050509392505050565b6000819050919050565b6000819050919050565b60006200037f6200037962000373846200034a565b62000354565b6200034a565b9050919050565b6000819050919050565b6200039b836200035e565b620003b3620003aa8262000386565b848454620002f4565b825550505050565b600090565b620003ca620003bb565b620003d781848462000390565b505050565b5b81811015620003ff57620003f3600082620003c0565b600181019050620003dd565b5050565b601f8211156200044e576200041881620002c2565b6200042384620002d7565b8101602085101562000433578190505b6200044b6200044285620002d7565b830182620003dc565b50505b505050565b600082821c905092915050565b6000620004736000198460080262000453565b1980831691505092915050565b60006200048e838362000460565b9150826002028217905092915050565b620004a98262000224565b67ffffffffffffffff811115620004c557620004c46200022f565b5b620004d182546200028d565b620004de82828562000403565b600060209050601f83116001811462000516576000841562000501578287015190505b6200050d858262000480565b8655506200057d565b601f1984166200052686620002c2565b60005b82811015620005505784890151825560018201915060208501945060208101905062000529565b868310156200057057848901516200056c601f89168262000460565b8355505b6001600288020188555050505b505050505050565b600080fd5b600073ffffffffffffffffffffffffffffffffffffffff82169050919050565b6000620005b7826200058a565b9050919050565b620005c981620005aa565b8114620005d557600080fd5b50565b600081519050620005e981620005be565b92915050565b60006020828403121562000608576200060762000585565b5b60006200061884828501620005d8565b91505092915050565b6200062c816200034a565b81146200063857600080fd5b50565b6000815190506200064c8162000621565b92915050565b6000602082840312156200066b576200066a62000585565b5b60006200067b848285016200063b565b91505092915050565b6131de80620006946000396000f3fe608060405234801561001057600080fd5b50600436106101735760003560e01c8063793c5d21116100de5780639eb88db611610097578063d961942c11610071578063d961942c146104a2578063da36cffe146104c0578063e3ab0b8e146104f0578063ed00e6531461050e57610173565b80639eb88db614610425578063a3ec138d14610441578063ae8d54451461047157610173565b8063793c5d211461033c57806383db7d20146103585780638ab66a901461038957806391652936146103bb5780639400d287146103d95780639c98bcbb146103f557610173565b806349590657116101305780634959065714610240578063581ea2c11461025e5780635ef16fa91461028e57806364d4f260146102be5780636d32dc4b146102dc578063753b97d01461030c57610173565b8063122902a6146101785780631830987714610196578063200d2ed2146101c65780632d35a8a2146101e45780632e6997fe14610202578063378a217814610221575b600080fd5b61018061052c565b60405161018d9190611850565b60405180910390f35b6101b060048036038101906101ab91906118b5565b610535565b6040516101bd91906118fd565b60405180910390f35b6101ce61055f565b6040516101db9190611850565b60405180910390f35b6101ec610565565b6040516101f99190611850565b60405180910390f35b61020a61056b565b604051610218929190611b5a565b60405180910390f35b61022961079e565b604051610237929190611c4f565b60405180910390f35b610248610a80565b6040516102559190611c95565b60405180910390f35b61027860048036038101906102739190611de5565b610b25565b6040516102859190611c95565b60405180910390f35b6102a860048036038101906102a39190611e89565b610ba5565b6040516102b591906118fd565b60405180910390f35b6102c6610bfe565b6040516102d39190611f00565b60405180910390f35b6102f660048036038101906102f19190611f4e565b610c8c565b6040516103039190611850565b60405180910390f35b61032660048036038101906103219190611f4e565b610d2b565b6040516103339190611f8a565b60405180910390f35b610356600480360381019061035191906118b5565b610d6a565b005b610372600480360381019061036d91906118b5565b610f4c565b604051610380929190612063565b60405180910390f35b6103a3600480360381019061039e9190611e89565b611008565b6040516103b29392919061209a565b60405180910390f35b6103c36110c7565b6040516103d09190611850565b60405180910390f35b6103f360048036038101906103ee9190612263565b6110cd565b005b61040f600480360381019061040a9190611f4e565b61133b565b60405161041c9190611850565b60405180910390f35b61043f600480360381019061043a9190612302565b6113da565b005b61045b60048036038101906104569190611e89565b6115bd565b60405161046891906118fd565b60405180910390f35b61048b6004803603810190610486919061234b565b6115e8565b6040516104999291906123d6565b60405180910390f35b6104aa6116bb565b6040516104b79190612530565b60405180910390f35b6104da60048036038101906104d59190611e89565b611764565b6040516104e791906118fd565b60405180910390f35b6104f86117bd565b60405161050591906125b1565b60405180910390f35b6105166117e3565b60405161052391906118fd565b60405180910390f35b60008054905090565b60006007600083815260200190815260200160002060009054906101000a900460ff169050919050565b60005481565b600a5481565b606080600060068054905067ffffffffffffffff81111561058f5761058e611cba565b5b6040519080825280602002602001820160405280156105c257816020015b60608152602001906001900390816105ad5790505b50905060005b6006805490508110156107095760086000600683815481106105ed576105ec6125cc565b5b9060005260206000200160009054906101000a900473ffffffffffffffffffffffffffffffffffffffff1673ffffffffffffffffffffffffffffffffffffffff1673ffffffffffffffffffffffffffffffffffffffff16815260200190815260200160002060000180546106609061262a565b80601f016020809104026020016040519081016040528092919081815260200182805461068c9061262a565b80156106d95780601f106106ae576101008083540402835291602001916106d9565b820191906000526020600020905b8154815290600101906020018083116106bc57829003601f168201915b50505050508282815181106106f1576106f06125cc565b5b602002602001018190525080806001019150506105c8565b506006818180548060200260200160405190810160405280929190818152602001828054801561078e57602002820191906000526020600020905b8160009054906101000a900473ffffffffffffffffffffffffffffffffffffffff1673ffffffffffffffffffffffffffffffffffffffff1681526020019060010190808311610744575b5050505050915092509250509091565b6060806002600054146107e6576040517f08c379a00000000000000000000000000000000000000000000000000000000081526004016107dd906126cd565b60405180910390fd5b600060068054905067ffffffffffffffff81111561080757610806611cba565b5b60405190808252806020026020018201604052801561083a57816020015b60608152602001906001900390816108255790505b509050600060068054905067ffffffffffffffff81111561085e5761085d611cba565b5b60405190808252806020026020018201604052801561088c5781602001602082028036833780820191505090505b50905060005b600680549050811015610a735760086000600683815481106108b7576108b66125cc565b5b9060005260206000200160009054906101000a900473ffffffffffffffffffffffffffffffffffffffff1673ffffffffffffffffffffffffffffffffffffffff1673ffffffffffffffffffffffffffffffffffffffff168152602001908152602001600020600001805461092a9061262a565b80601f01602080910402602001604051908101604052809291908181526020018280546109569061262a565b80156109a35780601f10610978576101008083540402835291602001916109a3565b820191906000526020600020905b81548152906001019060200180831161098657829003601f168201915b50505050508382815181106109bb576109ba6125cc565b5b602002602001018190525060086000600683815481106109de576109dd6125cc565b5b9060005260206000200160009054906101000a900473ffffffffffffffffffffffffffffffffffffffff1673ffffffffffffffffffffffffffffffffffffffff1673ffffffffffffffffffffffffffffffffffffffff16815260200190815260200160002060010154828281518110610a5a57610a596125cc565b5b6020026020010181815250508080600101915050610892565b5081819350935050509091565b6000600260009054906101000a900473ffffffffffffffffffffffffffffffffffffffff1673ffffffffffffffffffffffffffffffffffffffff16639b24b3b06003546040518263ffffffff1660e01b8152600401610adf9190611850565b602060405180830381865afa158015610afc573d6000803e3d6000fd5b505050506040513d601f19601f82011682018060405250810190610b209190612702565b905090565b6000808383604051602001610b3b92919061276b565b6040516020818303038152906040529050600281604051610b5c91906127d6565b602060405180830381855afa158015610b79573d6000803e3d6000fd5b5050506040513d601f19601f82011682018060405250810190610b9c9190612702565b91505092915050565b6000600860008373ffffffffffffffffffffffffffffffffffffffff1673ffffffffffffffffffffffffffffffffffffffff16815260200190815260200160002060020160009054906101000a900460ff169050919050565b60058054610c0b9061262a565b80601f0160208091040260200160405190810160405280929190818152602001828054610c379061262a565b8015610c845780601f10610c5957610100808354040283529160200191610c84565b820191906000526020600020905b815481529060010190602001808311610c6757829003601f168201915b505050505081565b6000600460003373ffffffffffffffffffffffffffffffffffffffff1673ffffffffffffffffffffffffffffffffffffffff16815260200190815260200160002060009054906101000a900460ff16610d1a576040517f08c379a0000000000000000000000000000000000000000000000000000000008152600401610d1190612839565b60405180910390fd5b816000819055506000549050919050565b60068181548110610d3b57600080fd5b906000526020600020016000915054906101000a900473ffffffffffffffffffffffffffffffffffffffff1681565b600960003373ffffffffffffffffffffffffffffffffffffffff1673ffffffffffffffffffffffffffffffffffffffff16815260200190815260200160002060000160009054906101000a900460ff1615610dfa576040517f08c379a0000000000000000000000000000000000000000000000000000000008152600401610df1906128a5565b60405180910390fd5b6000805414610e3e576040517f08c379a0000000000000000000000000000000000000000000000000000000008152600401610e3590612937565b60405180910390fd5b6000604051806020016040528060011515815250905080600960003373ffffffffffffffffffffffffffffffffffffffff1673ffffffffffffffffffffffffffffffffffffffff16815260200190815260200160002060008201518160000160006101000a81548160ff021916908315150217905550905050600260009054906101000a900473ffffffffffffffffffffffffffffffffffffffff1673ffffffffffffffffffffffffffffffffffffffff16634a1aec07600354846040518363ffffffff1660e01b8152600401610f16929190612957565b600060405180830381600087803b158015610f3057600080fd5b505af1158015610f44573d6000803e3d6000fd5b505050505050565b606080600080600260009054906101000a900473ffffffffffffffffffffffffffffffffffffffff1673ffffffffffffffffffffffffffffffffffffffff1663310557c6600354876040518363ffffffff1660e01b8152600401610fb1929190612957565b600060405180830381865afa158015610fce573d6000803e3d6000fd5b505050506040513d6000823e3d601f19601f82011682018060405250810190610ff79190612ac3565b915091508181935093505050915091565b600860205280600052604060002060009150905080600001805461102b9061262a565b80601f01602080910402602001604051908101604052809291908181526020018280546110579061262a565b80156110a45780601f10611079576101008083540402835291602001916110a4565b820191906000526020600020905b81548152906001019060200180831161108757829003601f168201915b5050505050908060010154908060020160009054906101000a900460ff16905083565b60035481565b816007600082815260200190815260200160002060009054906101000a900460ff161561112f576040517f08c379a000000000000000000000000000000000000000000000000000000000815260040161112690612b87565b60405180910390fd5b81600860008273ffffffffffffffffffffffffffffffffffffffff1673ffffffffffffffffffffffffffffffffffffffff16815260200190815260200160002060020160009054906101000a900460ff166111bf576040517f08c379a00000000000000000000000000000000000000000000000000000000081526004016111b690612bf3565b60405180910390fd5b600160005414611204576040517f08c379a00000000000000000000000000000000000000000000000000000000081526004016111fb90612c85565b60405180910390fd5b600260009054906101000a900473ffffffffffffffffffffffffffffffffffffffff1673ffffffffffffffffffffffffffffffffffffffff166327798ea360018888886040518563ffffffff1660e01b81526004016112669493929190612ce0565b602060405180830381865afa158015611283573d6000803e3d6000fd5b505050506040513d601f19601f820116820180604052508101906112a79190612d5f565b156113335760016007600086815260200190815260200160002060006101000a81548160ff0219169083151502179055506001600860008573ffffffffffffffffffffffffffffffffffffffff1673ffffffffffffffffffffffffffffffffffffffff168152602001908152602001600020600101600082825461132b9190612dbb565b925050819055505b505050505050565b6000600460003373ffffffffffffffffffffffffffffffffffffffff1673ffffffffffffffffffffffffffffffffffffffff16815260200190815260200160002060009054906101000a900460ff166113c9576040517f08c379a00000000000000000000000000000000000000000000000000000000081526004016113c090612839565b60405180910390fd5b816000819055506000549050919050565b600080541461141e576040517f08c379a000000000000000000000000000000000000000000000000000000000815260040161141590612937565b60405180910390fd5b33600860008273ffffffffffffffffffffffffffffffffffffffff1673ffffffffffffffffffffffffffffffffffffffff16815260200190815260200160002060020160009054906101000a900460ff16156114af576040517f08c379a00000000000000000000000000000000000000000000000000000000081526004016114a690612bf3565b60405180910390fd5b60006040518060600160405280848152602001600081526020016001151581525090506006339080600181540180825580915050600190039060005260206000200160009091909190916101000a81548173ffffffffffffffffffffffffffffffffffffffff021916908373ffffffffffffffffffffffffffffffffffffffff16021790555080600860003373ffffffffffffffffffffffffffffffffffffffff1673ffffffffffffffffffffffffffffffffffffffff168152602001908152602001600020600082015181600001908161158a9190612f91565b506020820151816001015560408201518160020160006101000a81548160ff021916908315150217905550905050505050565b60096020528060005260406000206000915090508060000160009054906101000a900460ff16905081565b600080600260009054906101000a900473ffffffffffffffffffffffffffffffffffffffff1673ffffffffffffffffffffffffffffffffffffffff166327798ea360018787876040518563ffffffff1660e01b815260040161164d9493929190612ce0565b602060405180830381865afa15801561166a573d6000803e3d6000fd5b505050506040513d601f19601f8201168201806040525081019061168e9190612d5f565b6007600085815260200190815260200160002060009054906101000a900460ff1691509150935093915050565b6060600260009054906101000a900473ffffffffffffffffffffffffffffffffffffffff1673ffffffffffffffffffffffffffffffffffffffff1663d56e210160016040518263ffffffff1660e01b81526004016117199190613063565b600060405180830381865afa158015611736573d6000803e3d6000fd5b505050506040513d6000823e3d601f19601f8201168201806040525081019061175f919061315f565b905090565b6000600960008373ffffffffffffffffffffffffffffffffffffffff1673ffffffffffffffffffffffffffffffffffffffff16815260200190815260200160002060000160009054906101000a900460ff169050919050565b600260009054906101000a900473ffffffffffffffffffffffffffffffffffffffff1681565b6000600460003373ffffffffffffffffffffffffffffffffffffffff1673ffffffffffffffffffffffffffffffffffffffff16815260200190815260200160002060009054906101000a900460ff16905090565b6000819050919050565b61184a81611837565b82525050565b60006020820190506118656000830184611841565b92915050565b6000604051905090565b600080fd5b600080fd5b6000819050919050565b6118928161187f565b811461189d57600080fd5b50565b6000813590506118af81611889565b92915050565b6000602082840312156118cb576118ca611875565b5b60006118d9848285016118a0565b91505092915050565b60008115159050919050565b6118f7816118e2565b82525050565b600060208201905061191260008301846118ee565b92915050565b600081519050919050565b600082825260208201905092915050565b6000819050602082019050919050565b600073ffffffffffffffffffffffffffffffffffffffff82169050919050565b600061196f82611944565b9050919050565b61197f81611964565b82525050565b60006119918383611976565b60208301905092915050565b6000602082019050919050565b60006119b582611918565b6119bf8185611923565b93506119ca83611934565b8060005b838110156119fb5781516119e28882611985565b97506119ed8361199d565b9250506001810190506119ce565b5085935050505092915050565b600081519050919050565b600082825260208201905092915050565b6000819050602082019050919050565b600081519050919050565b600082825260208201905092915050565b60005b83811015611a6e578082015181840152602081019050611a53565b60008484015250505050565b6000601f19601f8301169050919050565b6000611a9682611a34565b611aa08185611a3f565b9350611ab0818560208601611a50565b611ab981611a7a565b840191505092915050565b6000611ad08383611a8b565b905092915050565b6000602082019050919050565b6000611af082611a08565b611afa8185611a13565b935083602082028501611b0c85611a24565b8060005b85811015611b485784840389528151611b298582611ac4565b9450611b3483611ad8565b925060208a01995050600181019050611b10565b50829750879550505050505092915050565b60006040820190508181036000830152611b7481856119aa565b90508181036020830152611b888184611ae5565b90509392505050565b600081519050919050565b600082825260208201905092915050565b6000819050602082019050919050565b611bc681611837565b82525050565b6000611bd88383611bbd565b60208301905092915050565b6000602082019050919050565b6000611bfc82611b91565b611c068185611b9c565b9350611c1183611bad565b8060005b83811015611c42578151611c298882611bcc565b9750611c3483611be4565b925050600181019050611c15565b5085935050505092915050565b60006040820190508181036000830152611c698185611ae5565b90508181036020830152611c7d8184611bf1565b90509392505050565b611c8f8161187f565b82525050565b6000602082019050611caa6000830184611c86565b92915050565b600080fd5b600080fd5b7f4e487b7100000000000000000000000000000000000000000000000000000000600052604160045260246000fd5b611cf282611a7a565b810181811067ffffffffffffffff82111715611d1157611d10611cba565b5b80604052505050565b6000611d2461186b565b9050611d308282611ce9565b919050565b600067ffffffffffffffff821115611d5057611d4f611cba565b5b611d5982611a7a565b9050602081019050919050565b82818337600083830152505050565b6000611d88611d8384611d35565b611d1a565b905082815260208101848484011115611da457611da3611cb5565b5b611daf848285611d66565b509392505050565b600082601f830112611dcc57611dcb611cb0565b5b8135611ddc848260208601611d75565b91505092915050565b60008060408385031215611dfc57611dfb611875565b5b600083013567ffffffffffffffff811115611e1a57611e1961187a565b5b611e2685828601611db7565b925050602083013567ffffffffffffffff811115611e4757611e4661187a565b5b611e5385828601611db7565b9150509250929050565b611e6681611964565b8114611e7157600080fd5b50565b600081359050611e8381611e5d565b92915050565b600060208284031215611e9f57611e9e611875565b5b6000611ead84828501611e74565b91505092915050565b600082825260208201905092915050565b6000611ed282611a34565b611edc8185611eb6565b9350611eec818560208601611a50565b611ef581611a7a565b840191505092915050565b60006020820190508181036000830152611f1a8184611ec7565b905092915050565b611f2b81611837565b8114611f3657600080fd5b50565b600081359050611f4881611f22565b92915050565b600060208284031215611f6457611f63611875565b5b6000611f7284828501611f39565b91505092915050565b611f8481611964565b82525050565b6000602082019050611f9f6000830184611f7b565b92915050565b600081519050919050565b600082825260208201905092915050565b6000819050602082019050919050565b611fda8161187f565b82525050565b6000611fec8383611fd1565b60208301905092915050565b6000602082019050919050565b600061201082611fa5565b61201a8185611fb0565b935061202583611fc1565b8060005b8381101561205657815161203d8882611fe0565b975061204883611ff8565b925050600181019050612029565b5085935050505092915050565b6000604082019050818103600083015261207d8185612005565b905081810360208301526120918184611bf1565b90509392505050565b600060608201905081810360008301526120b48186611ec7565b90506120c36020830185611841565b6120d060408301846118ee565b949350505050565b600067ffffffffffffffff8211156120f3576120f2611cba565b5b602082029050602081019050919050565b600080fd5b600061211c612117846120d8565b611d1a565b9050808382526020820190506020840283018581111561213f5761213e612104565b5b835b81811015612168578061215488826118a0565b845260208401935050602081019050612141565b5050509392505050565b600082601f83011261218757612186611cb0565b5b8135612197848260208601612109565b91505092915050565b600067ffffffffffffffff8211156121bb576121ba611cba565b5b602082029050602081019050919050565b60006121df6121da846121a0565b611d1a565b9050808382526020820190506020840283018581111561220257612201612104565b5b835b8181101561222b57806122178882611f39565b845260208401935050602081019050612204565b5050509392505050565b600082601f83011261224a57612249611cb0565b5b813561225a8482602086016121cc565b91505092915050565b6000806000806080858703121561227d5761227c611875565b5b600085013567ffffffffffffffff81111561229b5761229a61187a565b5b6122a787828801612172565b945050602085013567ffffffffffffffff8111156122c8576122c761187a565b5b6122d487828801612235565b93505060406122e5878288016118a0565b92505060606122f687828801611e74565b91505092959194509250565b60006020828403121561231857612317611875565b5b600082013567ffffffffffffffff8111156123365761233561187a565b5b61234284828501611db7565b91505092915050565b60008060006060848603121561236457612363611875565b5b600084013567ffffffffffffffff8111156123825761238161187a565b5b61238e86828701612172565b935050602084013567ffffffffffffffff8111156123af576123ae61187a565b5b6123bb86828701612235565b92505060406123cc868287016118a0565b9150509250925092565b60006040820190506123eb60008301856118ee565b6123f860208301846118ee565b9392505050565b600081519050919050565b600082825260208201905092915050565b6000819050602082019050919050565b600082825260208201905092915050565b600061244782611fa5565b612451818561242b565b935061245c83611fc1565b8060005b8381101561248d5781516124748882611fe0565b975061247f83611ff8565b925050600181019050612460565b5085935050505092915050565b60006124a6838361243c565b905092915050565b6000602082019050919050565b60006124c6826123ff565b6124d0818561240a565b9350836020820285016124e28561241b565b8060005b8581101561251e57848403895281516124ff858261249a565b945061250a836124ae565b925060208a019950506001810190506124e6565b50829750879550505050505092915050565b6000602082019050818103600083015261254a81846124bb565b905092915050565b6000819050919050565b600061257761257261256d84611944565b612552565b611944565b9050919050565b60006125898261255c565b9050919050565b600061259b8261257e565b9050919050565b6125ab81612590565b82525050565b60006020820190506125c660008301846125a2565b92915050565b7f4e487b7100000000000000000000000000000000000000000000000000000000600052603260045260246000fd5b7f4e487b7100000000000000000000000000000000000000000000000000000000600052602260045260246000fd5b6000600282049050600182168061264257607f821691505b602082108103612655576126546125fb565b5b50919050565b7f416374696f6e2063616e20626520646f6e65206f6e6c7920616674657220746860008201527f6520656c656374696f6e00000000000000000000000000000000000000000000602082015250565b60006126b7602a83611eb6565b91506126c28261265b565b604082019050919050565b600060208201905081810360008301526126e6816126aa565b9050919050565b6000815190506126fc81611889565b92915050565b60006020828403121561271857612717611875565b5b6000612726848285016126ed565b91505092915050565b600081905092915050565b600061274582611a34565b61274f818561272f565b935061275f818560208601611a50565b80840191505092915050565b6000612777828561273a565b9150612783828461273a565b91508190509392505050565b600081519050919050565b600081905092915050565b60006127b08261278f565b6127ba818561279a565b93506127ca818560208601611a50565b80840191505092915050565b60006127e282846127a5565b915081905092915050565b7f43616e206f6e6c7920626520646f6e652062792061646d696e00000000000000600082015250565b6000612823601983611eb6565b915061282e826127ed565b602082019050919050565b6000602082019050818103600083015261285281612816565b9050919050565b7f566f74657220616c726561647920657869737473000000000000000000000000600082015250565b600061288f601483611eb6565b915061289a82612859565b602082019050919050565b600060208201905081810360008301526128be81612882565b9050919050565b7f416374696f6e2063616e6e6f7420626520646f6e65206166746572207468652060008201527f656c656374696f6e20626567696e730000000000000000000000000000000000602082015250565b6000612921602f83611eb6565b915061292c826128c5565b604082019050919050565b6000602082019050818103600083015261295081612914565b9050919050565b600060408201905061296c6000830185611841565b6129796020830184611c86565b9392505050565b600061299361298e846120d8565b611d1a565b905080838252602082019050602084028301858111156129b6576129b5612104565b5b835b818110156129df57806129cb88826126ed565b8452602084019350506020810190506129b8565b5050509392505050565b600082601f8301126129fe576129fd611cb0565b5b8151612a0e848260208601612980565b91505092915050565b600081519050612a2681611f22565b92915050565b6000612a3f612a3a846121a0565b611d1a565b90508083825260208201905060208402830185811115612a6257612a61612104565b5b835b81811015612a8b5780612a778882612a17565b845260208401935050602081019050612a64565b5050509392505050565b600082601f830112612aaa57612aa9611cb0565b5b8151612aba848260208601612a2c565b91505092915050565b60008060408385031215612ada57612ad9611875565b5b600083015167ffffffffffffffff811115612af857612af761187a565b5b612b04858286016129e9565b925050602083015167ffffffffffffffff811115612b2557612b2461187a565b5b612b3185828601612a95565b9150509250929050565b7f416c726561647920766f74652063617374000000000000000000000000000000600082015250565b6000612b71601183611eb6565b9150612b7c82612b3b565b602082019050919050565b60006020820190508181036000830152612ba081612b64565b9050919050565b7f4973206e6f7420612063616e6469646174650000000000000000000000000000600082015250565b6000612bdd601283611eb6565b9150612be882612ba7565b602082019050919050565b60006020820190508181036000830152612c0c81612bd0565b9050919050565b7f416374696f6e2063616e20626520646f6e65206f6e6c7920647572696e67207460008201527f686520656c656374696f6e000000000000000000000000000000000000000000602082015250565b6000612c6f602b83611eb6565b9150612c7a82612c13565b604082019050919050565b60006020820190508181036000830152612c9e81612c62565b9050919050565b6000819050919050565b6000612cca612cc5612cc084612ca5565b612552565b611837565b9050919050565b612cda81612caf565b82525050565b6000608082019050612cf56000830187612cd1565b8181036020830152612d078186612005565b90508181036040830152612d1b8185611bf1565b9050612d2a6060830184611c86565b95945050505050565b612d3c816118e2565b8114612d4757600080fd5b50565b600081519050612d5981612d33565b92915050565b600060208284031215612d7557612d74611875565b5b6000612d8384828501612d4a565b91505092915050565b7f4e487b7100000000000000000000000000000000000000000000000000000000600052601160045260246000fd5b6000612dc682611837565b9150612dd183611837565b9250828201905080821115612de957612de8612d8c565b5b92915050565b60008190508160005260206000209050919050565b60006020601f8301049050919050565b600082821b905092915050565b600060088302612e517fffffffffffffffffffffffffffffffffffffffffffffffffffffffffffffffff82612e14565b612e5b8683612e14565b95508019841693508086168417925050509392505050565b6000612e8e612e89612e8484611837565b612552565b611837565b9050919050565b6000819050919050565b612ea883612e73565b612ebc612eb482612e95565b848454612e21565b825550505050565b600090565b612ed1612ec4565b612edc818484612e9f565b505050565b5b81811015612f0057612ef5600082612ec9565b600181019050612ee2565b5050565b601f821115612f4557612f1681612def565b612f1f84612e04565b81016020851015612f2e578190505b612f42612f3a85612e04565b830182612ee1565b50505b505050565b600082821c905092915050565b6000612f6860001984600802612f4a565b1980831691505092915050565b6000612f818383612f57565b9150826002028217905092915050565b612f9a82611a34565b67ffffffffffffffff811115612fb357612fb2611cba565b5b612fbd825461262a565b612fc8828285612f04565b600060209050601f831160018114612ffb5760008415612fe9578287015190505b612ff38582612f75565b86555061305b565b601f19841661300986612def565b60005b828110156130315784890151825560018201915060208501945060208101905061300c565b8683101561304e578489015161304a601f891682612f57565b8355505b6001600288020188555050505b505050505050565b60006020820190506130786000830184612cd1565b92915050565b600067ffffffffffffffff82111561309957613098611cba565b5b602082029050602081019050919050565b60006130bd6130b88461307e565b611d1a565b905080838252602082019050602084028301858111156130e0576130df612104565b5b835b8181101561312757805167ffffffffffffffff81111561310557613104611cb0565b5b80860161311289826129e9565b855260208501945050506020810190506130e2565b5050509392505050565b600082601f83011261314657613145611cb0565b5b81516131568482602086016130aa565b91505092915050565b60006020828403121561317557613174611875565b5b600082015167ffffffffffffffff8111156131935761319261187a565b5b61319f84828501613131565b9150509291505056fea2646970667358221220712a9a961187d97141bc2bac890ed6839ae776ce04ec4748c2c25cb736f9e25b64736f6c63430008180033",
  "linkReferences": {},
  "deployedLinkReferences": {}
}