{
  "_format": "hh-sol-artifact-1",
  "contractName": "ElectionMain",
  "sourceName": "contracts/ElectionMain.sol",
  "abi": [
    {
      "inputs": [
        {
          "internalType": "address",
          "name": "_merkleAddress",
          "type": "address"
        },
        {
          "internalType": "uint256",
          "name": "_duration",
          "type": "uint256"
        },
        {
          "internalType": "uint256",
          "name": "_startAfter",
          "type": "uint256"
        }
      ],
      "stateMutability": "nonpayable",
      "type": "constructor"
    },
    {
      "inputs": [
        {
          "internalType": "uint256",
          "name": "",
          "type": "uint256"
        }
      ],
      "name": "candidateKeys",
      "outputs": [
        {
          "internalType": "address",
          "name": "",
          "type": "address"
        }
      ],
      "stateMutability": "view",
      "type": "function"
    },
    {
      "inputs": [
        {
          "internalType": "address",
          "name": "",
          "type": "address"
        }
      ],
      "name": "candidates",
      "outputs": [
        {
          "internalType": "string",
          "name": "name",
          "type": "string"
        },
        {
          "internalType": "uint256",
          "name": "voteCount",
          "type": "uint256"
        },
        {
          "internalType": "bool",
          "name": "exists",
          "type": "bool"
        }
      ],
      "stateMutability": "view",
      "type": "function"
    },
    {
      "inputs": [],
      "name": "candidatesCount",
      "outputs": [
        {
          "internalType": "uint256",
          "name": "",
          "type": "uint256"
        }
      ],
      "stateMutability": "view",
      "type": "function"
    },
    {
      "inputs": [
        {
          "internalType": "bytes32[]",
          "name": "_path",
          "type": "bytes32[]"
        },
        {
          "internalType": "uint256[]",
          "name": "_hashDirection",
          "type": "uint256[]"
        },
        {
          "internalType": "bytes32",
          "name": "_leaf",
          "type": "bytes32"
        },
        {
          "internalType": "address",
          "name": "_candidate",
          "type": "address"
        }
      ],
      "name": "castVote",
      "outputs": [],
      "stateMutability": "nonpayable",
      "type": "function"
    },
    {
      "inputs": [],
      "name": "checkIfAdmin",
      "outputs": [
        {
          "internalType": "bool",
          "name": "",
          "type": "bool"
        }
      ],
      "stateMutability": "view",
      "type": "function"
    },
    {
      "inputs": [],
      "name": "endElection",
      "outputs": [],
      "stateMutability": "nonpayable",
      "type": "function"
    },
    {
      "inputs": [],
      "name": "endTime",
      "outputs": [
        {
          "internalType": "uint256",
          "name": "",
          "type": "uint256"
        }
      ],
      "stateMutability": "view",
      "type": "function"
    },
    {
      "inputs": [],
      "name": "externalNullifer",
      "outputs": [
        {
          "internalType": "string",
          "name": "",
          "type": "string"
        }
      ],
      "stateMutability": "view",
      "type": "function"
    },
    {
      "inputs": [],
      "name": "getAllCandidates",
      "outputs": [
        {
          "internalType": "address[]",
          "name": "",
          "type": "address[]"
        },
        {
          "internalType": "string[]",
          "name": "",
          "type": "string[]"
        }
      ],
      "stateMutability": "view",
      "type": "function"
    },
    {
      "inputs": [],
      "name": "getEntireTree",
      "outputs": [
        {
          "internalType": "bytes32[][]",
          "name": "tree",
          "type": "bytes32[][]"
        }
      ],
      "stateMutability": "view",
      "type": "function"
    },
    {
      "inputs": [],
      "name": "getMerkleRoot",
      "outputs": [
        {
          "internalType": "bytes32",
          "name": "",
          "type": "bytes32"
        }
      ],
      "stateMutability": "view",
      "type": "function"
    },
    {
      "inputs": [
        {
          "internalType": "bytes32",
          "name": "commitment",
          "type": "bytes32"
        }
      ],
      "name": "getVoterProof",
      "outputs": [
        {
          "internalType": "bytes32[]",
          "name": "",
          "type": "bytes32[]"
        },
        {
          "internalType": "uint256[]",
          "name": "",
          "type": "uint256[]"
        }
      ],
      "stateMutability": "view",
      "type": "function"
    },
    {
      "inputs": [
        {
          "internalType": "string",
          "name": "str1",
          "type": "string"
        },
        {
          "internalType": "string",
          "name": "str2",
          "type": "string"
        }
      ],
      "name": "hashFunction",
      "outputs": [
        {
          "internalType": "bytes32",
          "name": "",
          "type": "bytes32"
        }
      ],
      "stateMutability": "pure",
      "type": "function"
    },
    {
      "inputs": [
        {
          "internalType": "address",
          "name": "_addr",
          "type": "address"
        }
      ],
      "name": "isRegisteredCandidate",
      "outputs": [
        {
          "internalType": "bool",
          "name": "",
          "type": "bool"
        }
      ],
      "stateMutability": "view",
      "type": "function"
    },
    {
      "inputs": [
        {
          "internalType": "address",
          "name": "_addr",
          "type": "address"
        }
      ],
      "name": "isRegisteredVoter",
      "outputs": [
        {
          "internalType": "bool",
          "name": "",
          "type": "bool"
        }
      ],
      "stateMutability": "view",
      "type": "function"
    },
    {
      "inputs": [],
      "name": "merkleForest",
      "outputs": [
        {
          "internalType": "contract MerkleTree",
          "name": "",
          "type": "address"
        }
      ],
      "stateMutability": "view",
      "type": "function"
    },
    {
      "inputs": [
        {
          "internalType": "string",
          "name": "_name",
          "type": "string"
        }
      ],
      "name": "registerCandidate",
      "outputs": [],
      "stateMutability": "nonpayable",
      "type": "function"
    },
    {
      "inputs": [
        {
          "internalType": "bytes32",
          "name": "_identitySecret",
          "type": "bytes32"
        }
      ],
      "name": "registerVoter",
      "outputs": [],
      "stateMutability": "nonpayable",
      "type": "function"
    },
    {
      "inputs": [],
      "name": "startElection",
      "outputs": [],
      "stateMutability": "nonpayable",
      "type": "function"
    },
    {
      "inputs": [],
      "name": "startTime",
      "outputs": [
        {
          "internalType": "uint256",
          "name": "",
          "type": "uint256"
        }
      ],
      "stateMutability": "view",
      "type": "function"
    },
    {
      "inputs": [],
      "name": "tallyVotes",
      "outputs": [
        {
          "internalType": "string[]",
          "name": "",
          "type": "string[]"
        },
        {
          "internalType": "uint256[]",
          "name": "",
          "type": "uint256[]"
        }
      ],
      "stateMutability": "view",
      "type": "function"
    },
    {
      "inputs": [],
      "name": "treeID",
      "outputs": [
        {
          "internalType": "uint256",
          "name": "",
          "type": "uint256"
        }
      ],
      "stateMutability": "view",
      "type": "function"
    },
    {
      "inputs": [
        {
          "internalType": "bytes32[]",
          "name": "_path",
          "type": "bytes32[]"
        },
        {
          "internalType": "uint256[]",
          "name": "_hashDirection",
          "type": "uint256[]"
        },
        {
          "internalType": "bytes32",
          "name": "_leaf",
          "type": "bytes32"
        }
      ],
      "name": "verifyProof",
      "outputs": [
        {
          "internalType": "bool",
          "name": "",
          "type": "bool"
        },
        {
          "internalType": "bool",
          "name": "",
          "type": "bool"
        }
      ],
      "stateMutability": "view",
      "type": "function"
    },
    {
      "inputs": [
        {
          "internalType": "bytes32",
          "name": "_leaf",
          "type": "bytes32"
        }
      ],
      "name": "voteCast",
      "outputs": [
        {
          "internalType": "bool",
          "name": "",
          "type": "bool"
        }
      ],
      "stateMutability": "view",
      "type": "function"
    },
    {
      "inputs": [
        {
          "internalType": "address",
          "name": "",
          "type": "address"
        }
      ],
      "name": "voters",
      "outputs": [
        {
          "internalType": "bool",
          "name": "isExists",
          "type": "bool"
        }
      ],
      "stateMutability": "view",
      "type": "function"
    }
  ],
  "bytecode": "0x60806040526040518060400160405280601281526020017f65787465726e616c5f6e756c6c69666965720000000000000000000000000000815250600690816200004a9190620004df565b503480156200005857600080fd5b506040516200393a3803806200393a83398181016040528101906200007e919062000661565b82600260006101000a81548173ffffffffffffffffffffffffffffffffffffffff021916908373ffffffffffffffffffffffffffffffffffffffff160217905550600260009054906101000a900473ffffffffffffffffffffffffffffffffffffffff16600360006101000a81548173ffffffffffffffffffffffffffffffffffffffff021916908373ffffffffffffffffffffffffffffffffffffffff160217905550600360009054906101000a900473ffffffffffffffffffffffffffffffffffffffff1673ffffffffffffffffffffffffffffffffffffffff1663d59a9e066040518163ffffffff1660e01b81526004016020604051808303816000875af115801562000192573d6000803e3d6000fd5b505050506040513d601f19601f82011682018060405250810190620001b89190620006bd565b600481905550603c81620001cd91906200071e565b42620001da919062000769565b600181905550603c82620001ef91906200071e565b600154620001fe919062000769565b6000819055506001600560003373ffffffffffffffffffffffffffffffffffffffff1673ffffffffffffffffffffffffffffffffffffffff16815260200190815260200160002060006101000a81548160ff021916908315150217905550505050620007a4565b600081519050919050565b7f4e487b7100000000000000000000000000000000000000000000000000000000600052604160045260246000fd5b7f4e487b7100000000000000000000000000000000000000000000000000000000600052602260045260246000fd5b60006002820490506001821680620002e757607f821691505b602082108103620002fd57620002fc6200029f565b5b50919050565b60008190508160005260206000209050919050565b60006020601f8301049050919050565b600082821b905092915050565b600060088302620003677fffffffffffffffffffffffffffffffffffffffffffffffffffffffffffffffff8262000328565b62000373868362000328565b95508019841693508086168417925050509392505050565b6000819050919050565b6000819050919050565b6000620003c0620003ba620003b4846200038b565b62000395565b6200038b565b9050919050565b6000819050919050565b620003dc836200039f565b620003f4620003eb82620003c7565b84845462000335565b825550505050565b600090565b6200040b620003fc565b62000418818484620003d1565b505050565b5b8181101562000440576200043460008262000401565b6001810190506200041e565b5050565b601f8211156200048f57620004598162000303565b620004648462000318565b8101602085101562000474578190505b6200048c620004838562000318565b8301826200041d565b50505b505050565b600082821c905092915050565b6000620004b46000198460080262000494565b1980831691505092915050565b6000620004cf8383620004a1565b9150826002028217905092915050565b620004ea8262000265565b67ffffffffffffffff81111562000506576200050562000270565b5b620005128254620002ce565b6200051f82828562000444565b600060209050601f83116001811462000557576000841562000542578287015190505b6200054e8582620004c1565b865550620005be565b601f198416620005678662000303565b60005b8281101562000591578489015182556001820191506020850194506020810190506200056a565b86831015620005b15784890151620005ad601f891682620004a1565b8355505b6001600288020188555050505b505050505050565b600080fd5b600073ffffffffffffffffffffffffffffffffffffffff82169050919050565b6000620005f882620005cb565b9050919050565b6200060a81620005eb565b81146200061657600080fd5b50565b6000815190506200062a81620005ff565b92915050565b6200063b816200038b565b81146200064757600080fd5b50565b6000815190506200065b8162000630565b92915050565b6000806000606084860312156200067d576200067c620005c6565b5b60006200068d8682870162000619565b9350506020620006a0868287016200064a565b9250506040620006b3868287016200064a565b9150509250925092565b600060208284031215620006d657620006d5620005c6565b5b6000620006e6848285016200064a565b91505092915050565b7f4e487b7100000000000000000000000000000000000000000000000000000000600052601160045260246000fd5b60006200072b826200038b565b915062000738836200038b565b925082820262000748816200038b565b91508282048414831517620007625762000761620006ef565b5b5092915050565b600062000776826200038b565b915062000783836200038b565b92508282019050808211156200079e576200079d620006ef565b5b92915050565b61318680620007b46000396000f3fe608060405234801561001057600080fd5b50600436106101735760003560e01c806378e97925116100de5780639eb88db611610097578063d961942c11610071578063d961942c14610456578063da36cffe14610474578063e3ab0b8e146104a4578063ed00e653146104c257610173565b80639eb88db6146103d9578063a3ec138d146103f5578063ae8d54451461042557610173565b806378e9792514610302578063793c5d211461032057806383db7d201461033c5780638ab66a901461036d578063916529361461039f5780639400d287146103bd57610173565b8063581ea2c111610130578063581ea2c11461024057806359f78468146102705780635ef16fa91461027a57806362d73eb8146102aa57806364d4f260146102b4578063753b97d0146102d257610173565b806318309877146101785780632d35a8a2146101a85780632e6997fe146101c65780633197cbb6146101e5578063378a2178146102035780634959065714610222575b600080fd5b610192600480360381019061018d9190611829565b6104e0565b60405161019f9190611871565b60405180910390f35b6101b061050a565b6040516101bd91906118a5565b60405180910390f35b6101ce610510565b6040516101dc929190611b02565b60405180910390f35b6101ed610743565b6040516101fa91906118a5565b60405180910390f35b61020b610749565b604051610219929190611bf7565b60405180910390f35b61022a610a2a565b6040516102379190611c3d565b60405180910390f35b61025a60048036038101906102559190611d8d565b610acf565b6040516102679190611c3d565b60405180910390f35b610278610b4f565b005b610294600480360381019061028f9190611e31565b610be4565b6040516102a19190611871565b60405180910390f35b6102b2610c3d565b005b6102bc610cd2565b6040516102c99190611ea8565b60405180910390f35b6102ec60048036038101906102e79190611ef6565b610d60565b6040516102f99190611f32565b60405180910390f35b61030a610d9f565b60405161031791906118a5565b60405180910390f35b61033a60048036038101906103359190611829565b610da5565b005b61035660048036038101906103519190611829565b610f87565b60405161036492919061200b565b60405180910390f35b61038760048036038101906103829190611e31565b611043565b60405161039693929190612042565b60405180910390f35b6103a7611102565b6040516103b491906118a5565b60405180910390f35b6103d760048036038101906103d2919061220b565b611108565b005b6103f360048036038101906103ee91906122aa565b611382565b005b61040f600480360381019061040a9190611e31565b611565565b60405161041c9190611871565b60405180910390f35b61043f600480360381019061043a91906122f3565b611590565b60405161044d92919061237e565b60405180910390f35b61045e611663565b60405161046b91906124d8565b60405180910390f35b61048e60048036038101906104899190611e31565b61170c565b60405161049b9190611871565b60405180910390f35b6104ac611765565b6040516104b99190612559565b60405180910390f35b6104ca61178b565b6040516104d79190611871565b60405180910390f35b60006008600083815260200190815260200160002060009054906101000a900460ff169050919050565b600b5481565b606080600060078054905067ffffffffffffffff81111561053457610533611c62565b5b60405190808252806020026020018201604052801561056757816020015b60608152602001906001900390816105525790505b50905060005b6007805490508110156106ae57600960006007838154811061059257610591612574565b5b9060005260206000200160009054906101000a900473ffffffffffffffffffffffffffffffffffffffff1673ffffffffffffffffffffffffffffffffffffffff1673ffffffffffffffffffffffffffffffffffffffff1681526020019081526020016000206000018054610605906125d2565b80601f0160208091040260200160405190810160405280929190818152602001828054610631906125d2565b801561067e5780601f106106535761010080835404028352916020019161067e565b820191906000526020600020905b81548152906001019060200180831161066157829003601f168201915b505050505082828151811061069657610695612574565b5b6020026020010181905250808060010191505061056d565b506007818180548060200260200160405190810160405280929190818152602001828054801561073357602002820191906000526020600020905b8160009054906101000a900473ffffffffffffffffffffffffffffffffffffffff1673ffffffffffffffffffffffffffffffffffffffff16815260200190600101908083116106e9575b5050505050915092509250509091565b60005481565b6060806000544211610790576040517f08c379a000000000000000000000000000000000000000000000000000000000815260040161078790612675565b60405180910390fd5b600060078054905067ffffffffffffffff8111156107b1576107b0611c62565b5b6040519080825280602002602001820160405280156107e457816020015b60608152602001906001900390816107cf5790505b509050600060078054905067ffffffffffffffff81111561080857610807611c62565b5b6040519080825280602002602001820160405280156108365781602001602082028036833780820191505090505b50905060005b600780549050811015610a1d57600960006007838154811061086157610860612574565b5b9060005260206000200160009054906101000a900473ffffffffffffffffffffffffffffffffffffffff1673ffffffffffffffffffffffffffffffffffffffff1673ffffffffffffffffffffffffffffffffffffffff16815260200190815260200160002060000180546108d4906125d2565b80601f0160208091040260200160405190810160405280929190818152602001828054610900906125d2565b801561094d5780601f106109225761010080835404028352916020019161094d565b820191906000526020600020905b81548152906001019060200180831161093057829003601f168201915b505050505083828151811061096557610964612574565b5b6020026020010181905250600960006007838154811061098857610987612574565b5b9060005260206000200160009054906101000a900473ffffffffffffffffffffffffffffffffffffffff1673ffffffffffffffffffffffffffffffffffffffff1673ffffffffffffffffffffffffffffffffffffffff16815260200190815260200160002060010154828281518110610a0457610a03612574565b5b602002602001018181525050808060010191505061083c565b5081819350935050509091565b6000600360009054906101000a900473ffffffffffffffffffffffffffffffffffffffff1673ffffffffffffffffffffffffffffffffffffffff16639b24b3b06004546040518263ffffffff1660e01b8152600401610a8991906118a5565b602060405180830381865afa158015610aa6573d6000803e3d6000fd5b505050506040513d601f19601f82011682018060405250810190610aca91906126aa565b905090565b6000808383604051602001610ae5929190612713565b6040516020818303038152906040529050600281604051610b06919061277e565b602060405180830381855afa158015610b23573d6000803e3d6000fd5b5050506040513d601f19601f82011682018060405250810190610b4691906126aa565b91505092915050565b600560003373ffffffffffffffffffffffffffffffffffffffff1673ffffffffffffffffffffffffffffffffffffffff16815260200190815260200160002060009054906101000a900460ff16610bdb576040517f08c379a0000000000000000000000000000000000000000000000000000000008152600401610bd2906127e1565b60405180910390fd5b42600081905550565b6000600960008373ffffffffffffffffffffffffffffffffffffffff1673ffffffffffffffffffffffffffffffffffffffff16815260200190815260200160002060020160009054906101000a900460ff169050919050565b600560003373ffffffffffffffffffffffffffffffffffffffff1673ffffffffffffffffffffffffffffffffffffffff16815260200190815260200160002060009054906101000a900460ff16610cc9576040517f08c379a0000000000000000000000000000000000000000000000000000000008152600401610cc0906127e1565b60405180910390fd5b42600181905550565b60068054610cdf906125d2565b80601f0160208091040260200160405190810160405280929190818152602001828054610d0b906125d2565b8015610d585780601f10610d2d57610100808354040283529160200191610d58565b820191906000526020600020905b815481529060010190602001808311610d3b57829003601f168201915b505050505081565b60078181548110610d7057600080fd5b906000526020600020016000915054906101000a900473ffffffffffffffffffffffffffffffffffffffff1681565b60015481565b600a60003373ffffffffffffffffffffffffffffffffffffffff1673ffffffffffffffffffffffffffffffffffffffff16815260200190815260200160002060000160009054906101000a900460ff1615610e35576040517f08c379a0000000000000000000000000000000000000000000000000000000008152600401610e2c9061284d565b60405180910390fd5b6001544210610e79576040517f08c379a0000000000000000000000000000000000000000000000000000000008152600401610e70906128df565b60405180910390fd5b6000604051806020016040528060011515815250905080600a60003373ffffffffffffffffffffffffffffffffffffffff1673ffffffffffffffffffffffffffffffffffffffff16815260200190815260200160002060008201518160000160006101000a81548160ff021916908315150217905550905050600360009054906101000a900473ffffffffffffffffffffffffffffffffffffffff1673ffffffffffffffffffffffffffffffffffffffff16634a1aec07600454846040518363ffffffff1660e01b8152600401610f519291906128ff565b600060405180830381600087803b158015610f6b57600080fd5b505af1158015610f7f573d6000803e3d6000fd5b505050505050565b606080600080600360009054906101000a900473ffffffffffffffffffffffffffffffffffffffff1673ffffffffffffffffffffffffffffffffffffffff1663310557c6600454876040518363ffffffff1660e01b8152600401610fec9291906128ff565b600060405180830381865afa158015611009573d6000803e3d6000fd5b505050506040513d6000823e3d601f19601f820116820180604052508101906110329190612a6b565b915091508181935093505050915091565b6009602052806000526040600020600091509050806000018054611066906125d2565b80601f0160208091040260200160405190810160405280929190818152602001828054611092906125d2565b80156110df5780601f106110b4576101008083540402835291602001916110df565b820191906000526020600020905b8154815290600101906020018083116110c257829003601f168201915b5050505050908060010154908060020160009054906101000a900460ff16905083565b60045481565b816008600082815260200190815260200160002060009054906101000a900460ff161561116a576040517f08c379a000000000000000000000000000000000000000000000000000000000815260040161116190612b2f565b60405180910390fd5b81600960008273ffffffffffffffffffffffffffffffffffffffff1673ffffffffffffffffffffffffffffffffffffffff16815260200190815260200160002060020160009054906101000a900460ff166111fa576040517f08c379a00000000000000000000000000000000000000000000000000000000081526004016111f190612b9b565b60405180910390fd5b6001544211801561120c575060005442105b61124b576040517f08c379a000000000000000000000000000000000000000000000000000000000815260040161124290612c2d565b60405180910390fd5b600360009054906101000a900473ffffffffffffffffffffffffffffffffffffffff1673ffffffffffffffffffffffffffffffffffffffff166327798ea360018888886040518563ffffffff1660e01b81526004016112ad9493929190612c88565b602060405180830381865afa1580156112ca573d6000803e3d6000fd5b505050506040513d601f19601f820116820180604052508101906112ee9190612d07565b1561137a5760016008600086815260200190815260200160002060006101000a81548160ff0219169083151502179055506001600960008573ffffffffffffffffffffffffffffffffffffffff1673ffffffffffffffffffffffffffffffffffffffff16815260200190815260200160002060010160008282546113729190612d63565b925050819055505b505050505050565b60015442106113c6576040517f08c379a00000000000000000000000000000000000000000000000000000000081526004016113bd906128df565b60405180910390fd5b33600960008273ffffffffffffffffffffffffffffffffffffffff1673ffffffffffffffffffffffffffffffffffffffff16815260200190815260200160002060020160009054906101000a900460ff1615611457576040517f08c379a000000000000000000000000000000000000000000000000000000000815260040161144e90612b9b565b60405180910390fd5b60006040518060600160405280848152602001600081526020016001151581525090506007339080600181540180825580915050600190039060005260206000200160009091909190916101000a81548173ffffffffffffffffffffffffffffffffffffffff021916908373ffffffffffffffffffffffffffffffffffffffff16021790555080600960003373ffffffffffffffffffffffffffffffffffffffff1673ffffffffffffffffffffffffffffffffffffffff16815260200190815260200160002060008201518160000190816115329190612f39565b506020820151816001015560408201518160020160006101000a81548160ff021916908315150217905550905050505050565b600a6020528060005260406000206000915090508060000160009054906101000a900460ff16905081565b600080600360009054906101000a900473ffffffffffffffffffffffffffffffffffffffff1673ffffffffffffffffffffffffffffffffffffffff166327798ea360018787876040518563ffffffff1660e01b81526004016115f59493929190612c88565b602060405180830381865afa158015611612573d6000803e3d6000fd5b505050506040513d601f19601f820116820180604052508101906116369190612d07565b6008600085815260200190815260200160002060009054906101000a900460ff1691509150935093915050565b6060600360009054906101000a900473ffffffffffffffffffffffffffffffffffffffff1673ffffffffffffffffffffffffffffffffffffffff1663d56e210160016040518263ffffffff1660e01b81526004016116c1919061300b565b600060405180830381865afa1580156116de573d6000803e3d6000fd5b505050506040513d6000823e3d601f19601f820116820180604052508101906117079190613107565b905090565b6000600a60008373ffffffffffffffffffffffffffffffffffffffff1673ffffffffffffffffffffffffffffffffffffffff16815260200190815260200160002060000160009054906101000a900460ff169050919050565b600360009054906101000a900473ffffffffffffffffffffffffffffffffffffffff1681565b6000600560003373ffffffffffffffffffffffffffffffffffffffff1673ffffffffffffffffffffffffffffffffffffffff16815260200190815260200160002060009054906101000a900460ff16905090565b6000604051905090565b600080fd5b600080fd5b6000819050919050565b611806816117f3565b811461181157600080fd5b50565b600081359050611823816117fd565b92915050565b60006020828403121561183f5761183e6117e9565b5b600061184d84828501611814565b91505092915050565b60008115159050919050565b61186b81611856565b82525050565b60006020820190506118866000830184611862565b92915050565b6000819050919050565b61189f8161188c565b82525050565b60006020820190506118ba6000830184611896565b92915050565b600081519050919050565b600082825260208201905092915050565b6000819050602082019050919050565b600073ffffffffffffffffffffffffffffffffffffffff82169050919050565b6000611917826118ec565b9050919050565b6119278161190c565b82525050565b6000611939838361191e565b60208301905092915050565b6000602082019050919050565b600061195d826118c0565b61196781856118cb565b9350611972836118dc565b8060005b838110156119a357815161198a888261192d565b975061199583611945565b925050600181019050611976565b5085935050505092915050565b600081519050919050565b600082825260208201905092915050565b6000819050602082019050919050565b600081519050919050565b600082825260208201905092915050565b60005b83811015611a165780820151818401526020810190506119fb565b60008484015250505050565b6000601f19601f8301169050919050565b6000611a3e826119dc565b611a4881856119e7565b9350611a588185602086016119f8565b611a6181611a22565b840191505092915050565b6000611a788383611a33565b905092915050565b6000602082019050919050565b6000611a98826119b0565b611aa281856119bb565b935083602082028501611ab4856119cc565b8060005b85811015611af05784840389528151611ad18582611a6c565b9450611adc83611a80565b925060208a01995050600181019050611ab8565b50829750879550505050505092915050565b60006040820190508181036000830152611b1c8185611952565b90508181036020830152611b308184611a8d565b90509392505050565b600081519050919050565b600082825260208201905092915050565b6000819050602082019050919050565b611b6e8161188c565b82525050565b6000611b808383611b65565b60208301905092915050565b6000602082019050919050565b6000611ba482611b39565b611bae8185611b44565b9350611bb983611b55565b8060005b83811015611bea578151611bd18882611b74565b9750611bdc83611b8c565b925050600181019050611bbd565b5085935050505092915050565b60006040820190508181036000830152611c118185611a8d565b90508181036020830152611c258184611b99565b90509392505050565b611c37816117f3565b82525050565b6000602082019050611c526000830184611c2e565b92915050565b600080fd5b600080fd5b7f4e487b7100000000000000000000000000000000000000000000000000000000600052604160045260246000fd5b611c9a82611a22565b810181811067ffffffffffffffff82111715611cb957611cb8611c62565b5b80604052505050565b6000611ccc6117df565b9050611cd88282611c91565b919050565b600067ffffffffffffffff821115611cf857611cf7611c62565b5b611d0182611a22565b9050602081019050919050565b82818337600083830152505050565b6000611d30611d2b84611cdd565b611cc2565b905082815260208101848484011115611d4c57611d4b611c5d565b5b611d57848285611d0e565b509392505050565b600082601f830112611d7457611d73611c58565b5b8135611d84848260208601611d1d565b91505092915050565b60008060408385031215611da457611da36117e9565b5b600083013567ffffffffffffffff811115611dc257611dc16117ee565b5b611dce85828601611d5f565b925050602083013567ffffffffffffffff811115611def57611dee6117ee565b5b611dfb85828601611d5f565b9150509250929050565b611e0e8161190c565b8114611e1957600080fd5b50565b600081359050611e2b81611e05565b92915050565b600060208284031215611e4757611e466117e9565b5b6000611e5584828501611e1c565b91505092915050565b600082825260208201905092915050565b6000611e7a826119dc565b611e848185611e5e565b9350611e948185602086016119f8565b611e9d81611a22565b840191505092915050565b60006020820190508181036000830152611ec28184611e6f565b905092915050565b611ed38161188c565b8114611ede57600080fd5b50565b600081359050611ef081611eca565b92915050565b600060208284031215611f0c57611f0b6117e9565b5b6000611f1a84828501611ee1565b91505092915050565b611f2c8161190c565b82525050565b6000602082019050611f476000830184611f23565b92915050565b600081519050919050565b600082825260208201905092915050565b6000819050602082019050919050565b611f82816117f3565b82525050565b6000611f948383611f79565b60208301905092915050565b6000602082019050919050565b6000611fb882611f4d565b611fc28185611f58565b9350611fcd83611f69565b8060005b83811015611ffe578151611fe58882611f88565b9750611ff083611fa0565b925050600181019050611fd1565b5085935050505092915050565b600060408201905081810360008301526120258185611fad565b905081810360208301526120398184611b99565b90509392505050565b6000606082019050818103600083015261205c8186611e6f565b905061206b6020830185611896565b6120786040830184611862565b949350505050565b600067ffffffffffffffff82111561209b5761209a611c62565b5b602082029050602081019050919050565b600080fd5b60006120c46120bf84612080565b611cc2565b905080838252602082019050602084028301858111156120e7576120e66120ac565b5b835b8181101561211057806120fc8882611814565b8452602084019350506020810190506120e9565b5050509392505050565b600082601f83011261212f5761212e611c58565b5b813561213f8482602086016120b1565b91505092915050565b600067ffffffffffffffff82111561216357612162611c62565b5b602082029050602081019050919050565b600061218761218284612148565b611cc2565b905080838252602082019050602084028301858111156121aa576121a96120ac565b5b835b818110156121d357806121bf8882611ee1565b8452602084019350506020810190506121ac565b5050509392505050565b600082601f8301126121f2576121f1611c58565b5b8135612202848260208601612174565b91505092915050565b60008060008060808587031215612225576122246117e9565b5b600085013567ffffffffffffffff811115612243576122426117ee565b5b61224f8782880161211a565b945050602085013567ffffffffffffffff8111156122705761226f6117ee565b5b61227c878288016121dd565b935050604061228d87828801611814565b925050606061229e87828801611e1c565b91505092959194509250565b6000602082840312156122c0576122bf6117e9565b5b600082013567ffffffffffffffff8111156122de576122dd6117ee565b5b6122ea84828501611d5f565b91505092915050565b60008060006060848603121561230c5761230b6117e9565b5b600084013567ffffffffffffffff81111561232a576123296117ee565b5b6123368682870161211a565b935050602084013567ffffffffffffffff811115612357576123566117ee565b5b612363868287016121dd565b925050604061237486828701611814565b9150509250925092565b60006040820190506123936000830185611862565b6123a06020830184611862565b9392505050565b600081519050919050565b600082825260208201905092915050565b6000819050602082019050919050565b600082825260208201905092915050565b60006123ef82611f4d565b6123f981856123d3565b935061240483611f69565b8060005b8381101561243557815161241c8882611f88565b975061242783611fa0565b925050600181019050612408565b5085935050505092915050565b600061244e83836123e4565b905092915050565b6000602082019050919050565b600061246e826123a7565b61247881856123b2565b93508360208202850161248a856123c3565b8060005b858110156124c657848403895281516124a78582612442565b94506124b283612456565b925060208a0199505060018101905061248e565b50829750879550505050505092915050565b600060208201905081810360008301526124f28184612463565b905092915050565b6000819050919050565b600061251f61251a612515846118ec565b6124fa565b6118ec565b9050919050565b600061253182612504565b9050919050565b600061254382612526565b9050919050565b61255381612538565b82525050565b600060208201905061256e600083018461254a565b92915050565b7f4e487b7100000000000000000000000000000000000000000000000000000000600052603260045260246000fd5b7f4e487b7100000000000000000000000000000000000000000000000000000000600052602260045260246000fd5b600060028204905060018216806125ea57607f821691505b6020821081036125fd576125fc6125a3565b5b50919050565b7f416374696f6e2063616e20626520646f6e65206f6e6c7920616674657220746860008201527f6520656c656374696f6e00000000000000000000000000000000000000000000602082015250565b600061265f602a83611e5e565b915061266a82612603565b604082019050919050565b6000602082019050818103600083015261268e81612652565b9050919050565b6000815190506126a4816117fd565b92915050565b6000602082840312156126c0576126bf6117e9565b5b60006126ce84828501612695565b91505092915050565b600081905092915050565b60006126ed826119dc565b6126f781856126d7565b93506127078185602086016119f8565b80840191505092915050565b600061271f82856126e2565b915061272b82846126e2565b91508190509392505050565b600081519050919050565b600081905092915050565b600061275882612737565b6127628185612742565b93506127728185602086016119f8565b80840191505092915050565b600061278a828461274d565b915081905092915050565b7f43616e206f6e6c7920626520646f6e652062792061646d696e00000000000000600082015250565b60006127cb601983611e5e565b91506127d682612795565b602082019050919050565b600060208201905081810360008301526127fa816127be565b9050919050565b7f566f74657220616c726561647920657869737473000000000000000000000000600082015250565b6000612837601483611e5e565b915061284282612801565b602082019050919050565b600060208201905081810360008301526128668161282a565b9050919050565b7f416374696f6e2063616e6e6f7420626520646f6e65206166746572207468652060008201527f656c656374696f6e20626567696e730000000000000000000000000000000000602082015250565b60006128c9602f83611e5e565b91506128d48261286d565b604082019050919050565b600060208201905081810360008301526128f8816128bc565b9050919050565b60006040820190506129146000830185611896565b6129216020830184611c2e565b9392505050565b600061293b61293684612080565b611cc2565b9050808382526020820190506020840283018581111561295e5761295d6120ac565b5b835b8181101561298757806129738882612695565b845260208401935050602081019050612960565b5050509392505050565b600082601f8301126129a6576129a5611c58565b5b81516129b6848260208601612928565b91505092915050565b6000815190506129ce81611eca565b92915050565b60006129e76129e284612148565b611cc2565b90508083825260208201905060208402830185811115612a0a57612a096120ac565b5b835b81811015612a335780612a1f88826129bf565b845260208401935050602081019050612a0c565b5050509392505050565b600082601f830112612a5257612a51611c58565b5b8151612a628482602086016129d4565b91505092915050565b60008060408385031215612a8257612a816117e9565b5b600083015167ffffffffffffffff811115612aa057612a9f6117ee565b5b612aac85828601612991565b925050602083015167ffffffffffffffff811115612acd57612acc6117ee565b5b612ad985828601612a3d565b9150509250929050565b7f416c726561647920766f74652063617374000000000000000000000000000000600082015250565b6000612b19601183611e5e565b9150612b2482612ae3565b602082019050919050565b60006020820190508181036000830152612b4881612b0c565b9050919050565b7f4973206e6f7420612063616e6469646174650000000000000000000000000000600082015250565b6000612b85601283611e5e565b9150612b9082612b4f565b602082019050919050565b60006020820190508181036000830152612bb481612b78565b9050919050565b7f416374696f6e2063616e20626520646f6e65206f6e6c7920647572696e67207460008201527f686520656c656374696f6e000000000000000000000000000000000000000000602082015250565b6000612c17602b83611e5e565b9150612c2282612bbb565b604082019050919050565b60006020820190508181036000830152612c4681612c0a565b9050919050565b6000819050919050565b6000612c72612c6d612c6884612c4d565b6124fa565b61188c565b9050919050565b612c8281612c57565b82525050565b6000608082019050612c9d6000830187612c79565b8181036020830152612caf8186611fad565b90508181036040830152612cc38185611b99565b9050612cd26060830184611c2e565b95945050505050565b612ce481611856565b8114612cef57600080fd5b50565b600081519050612d0181612cdb565b92915050565b600060208284031215612d1d57612d1c6117e9565b5b6000612d2b84828501612cf2565b91505092915050565b7f4e487b7100000000000000000000000000000000000000000000000000000000600052601160045260246000fd5b6000612d6e8261188c565b9150612d798361188c565b9250828201905080821115612d9157612d90612d34565b5b92915050565b60008190508160005260206000209050919050565b60006020601f8301049050919050565b600082821b905092915050565b600060088302612df97fffffffffffffffffffffffffffffffffffffffffffffffffffffffffffffffff82612dbc565b612e038683612dbc565b95508019841693508086168417925050509392505050565b6000612e36612e31612e2c8461188c565b6124fa565b61188c565b9050919050565b6000819050919050565b612e5083612e1b565b612e64612e5c82612e3d565b848454612dc9565b825550505050565b600090565b612e79612e6c565b612e84818484612e47565b505050565b5b81811015612ea857612e9d600082612e71565b600181019050612e8a565b5050565b601f821115612eed57612ebe81612d97565b612ec784612dac565b81016020851015612ed6578190505b612eea612ee285612dac565b830182612e89565b50505b505050565b600082821c905092915050565b6000612f1060001984600802612ef2565b1980831691505092915050565b6000612f298383612eff565b9150826002028217905092915050565b612f42826119dc565b67ffffffffffffffff811115612f5b57612f5a611c62565b5b612f6582546125d2565b612f70828285612eac565b600060209050601f831160018114612fa35760008415612f91578287015190505b612f9b8582612f1d565b865550613003565b601f198416612fb186612d97565b60005b82811015612fd957848901518255600182019150602085019450602081019050612fb4565b86831015612ff65784890151612ff2601f891682612eff565b8355505b6001600288020188555050505b505050505050565b60006020820190506130206000830184612c79565b92915050565b600067ffffffffffffffff82111561304157613040611c62565b5b602082029050602081019050919050565b600061306561306084613026565b611cc2565b90508083825260208201905060208402830185811115613088576130876120ac565b5b835b818110156130cf57805167ffffffffffffffff8111156130ad576130ac611c58565b5b8086016130ba8982612991565b8552602085019450505060208101905061308a565b5050509392505050565b600082601f8301126130ee576130ed611c58565b5b81516130fe848260208601613052565b91505092915050565b60006020828403121561311d5761311c6117e9565b5b600082015167ffffffffffffffff81111561313b5761313a6117ee565b5b613147848285016130d9565b9150509291505056fea264697066735822122065efaa02e5fdd50a4a45646e5c39918f51af596429ee94f726a527fc62533dab64736f6c63430008180033",
  "linkReferences": {},
  "deployedLinkReferences": {}
}