{
  "_format": "hh-sol-artifact-1",
  "contractName": "MerkleTree",
  "sourceName": "contracts/MerkleTree.sol",
  "abi": [
    {
      "inputs": [
        {
          "internalType": "uint256",
          "name": "_treeID",
          "type": "uint256"
        },
        {
          "internalType": "bytes32",
          "name": "data",
          "type": "bytes32"
        }
      ],
      "name": "addElement",
      "outputs": [],
      "stateMutability": "nonpayable",
      "type": "function"
    },
    {
      "inputs": [
        {
          "internalType": "uint256",
          "name": "_treeID",
          "type": "uint256"
        },
        {
          "internalType": "bytes32",
          "name": "leaf",
          "type": "bytes32"
        }
      ],
      "name": "getElementPath",
      "outputs": [
        {
          "internalType": "bytes32[]",
          "name": "",
          "type": "bytes32[]"
        },
        {
          "internalType": "uint256[]",
          "name": "",
          "type": "uint256[]"
        }
      ],
      "stateMutability": "view",
      "type": "function"
    },
    {
      "inputs": [
        {
          "internalType": "uint256",
          "name": "index",
          "type": "uint256"
        }
      ],
      "name": "getParent",
      "outputs": [
        {
          "internalType": "uint256",
          "name": "",
          "type": "uint256"
        }
      ],
      "stateMutability": "pure",
      "type": "function"
    },
    {
      "inputs": [
        {
          "internalType": "uint256",
          "name": "_treeID",
          "type": "uint256"
        }
      ],
      "name": "getRoot",
      "outputs": [
        {
          "internalType": "bytes32",
          "name": "",
          "type": "bytes32"
        }
      ],
      "stateMutability": "view",
      "type": "function"
    },
    {
      "inputs": [
        {
          "internalType": "uint256",
          "name": "index",
          "type": "uint256"
        }
      ],
      "name": "getSibling",
      "outputs": [
        {
          "internalType": "uint256",
          "name": "",
          "type": "uint256"
        }
      ],
      "stateMutability": "pure",
      "type": "function"
    },
    {
      "inputs": [
        {
          "internalType": "uint256",
          "name": "_treeID",
          "type": "uint256"
        }
      ],
      "name": "getTree",
      "outputs": [
        {
          "internalType": "bytes32[][]",
          "name": "tree",
          "type": "bytes32[][]"
        }
      ],
      "stateMutability": "view",
      "type": "function"
    },
    {
      "inputs": [
        {
          "internalType": "bytes32",
          "name": "left",
          "type": "bytes32"
        },
        {
          "internalType": "bytes32",
          "name": "right",
          "type": "bytes32"
        }
      ],
      "name": "hashBytes32",
      "outputs": [
        {
          "internalType": "bytes32",
          "name": "",
          "type": "bytes32"
        }
      ],
      "stateMutability": "pure",
      "type": "function"
    },
    {
      "inputs": [],
      "name": "initTreeAndGetID",
      "outputs": [
        {
          "internalType": "uint256",
          "name": "",
          "type": "uint256"
        }
      ],
      "stateMutability": "nonpayable",
      "type": "function"
    },
    {
      "inputs": [
        {
          "internalType": "int256",
          "name": "x",
          "type": "int256"
        }
      ],
      "name": "isPowerOfTwo",
      "outputs": [
        {
          "internalType": "bool",
          "name": "",
          "type": "bool"
        }
      ],
      "stateMutability": "pure",
      "type": "function"
    },
    {
      "inputs": [
        {
          "internalType": "uint256",
          "name": "_treeID",
          "type": "uint256"
        },
        {
          "internalType": "bytes32",
          "name": "data",
          "type": "bytes32"
        }
      ],
      "name": "makePaddingTree",
      "outputs": [],
      "stateMutability": "nonpayable",
      "type": "function"
    },
    {
      "inputs": [
        {
          "internalType": "uint256",
          "name": "_treeID",
          "type": "uint256"
        },
        {
          "internalType": "bytes32[][]",
          "name": "newTree",
          "type": "bytes32[][]"
        }
      ],
      "name": "mergeTreesAndUpdateRoot",
      "outputs": [],
      "stateMutability": "nonpayable",
      "type": "function"
    },
    {
      "inputs": [
        {
          "internalType": "int256",
          "name": "x",
          "type": "int256"
        }
      ],
      "name": "nextPowerOfTwo",
      "outputs": [
        {
          "internalType": "int256",
          "name": "",
          "type": "int256"
        }
      ],
      "stateMutability": "pure",
      "type": "function"
    },
    {
      "inputs": [
        {
          "internalType": "bytes32",
          "name": "data",
          "type": "bytes32"
        }
      ],
      "name": "sha256Hash",
      "outputs": [
        {
          "internalType": "bytes32",
          "name": "",
          "type": "bytes32"
        }
      ],
      "stateMutability": "pure",
      "type": "function"
    },
    {
      "inputs": [],
      "name": "treeCount",
      "outputs": [
        {
          "internalType": "uint256",
          "name": "",
          "type": "uint256"
        }
      ],
      "stateMutability": "view",
      "type": "function"
    },
    {
      "inputs": [
        {
          "internalType": "uint256",
          "name": "_treeID",
          "type": "uint256"
        },
        {
          "internalType": "bytes32[]",
          "name": "path",
          "type": "bytes32[]"
        },
        {
          "internalType": "uint256[]",
          "name": "hashOrder",
          "type": "uint256[]"
        },
        {
          "internalType": "bytes32",
          "name": "leaf",
          "type": "bytes32"
        }
      ],
      "name": "verifyPath",
      "outputs": [
        {
          "internalType": "bool",
          "name": "",
          "type": "bool"
        }
      ],
      "stateMutability": "view",
      "type": "function"
    }
  ],
  "bytecode": "0x60806040527f736f6d654f7468657252616e646f6d537472696e67466f7250616464696e6700600055600060015534801561003957600080fd5b506123a3806100496000396000f3fe608060405234801561001057600080fd5b50600436106100f55760003560e01c80634a1aec0711610097578063d56e210111610066578063d56e2101146102e3578063d59a9e0614610313578063fea3b6c314610331578063ff6bdbfe1461034f576100f5565b80634a1aec0714610237578063502949aa1461025357806357f01294146102835780639b24b3b0146102b3576100f5565b806333c8826b116100d357806333c8826b1461018b578063357cbfc5146101bb57806339d74b19146101d7578063414533de14610207576100f5565b806327798ea3146100fa5780632ddda2d21461012a578063310557c61461015a575b600080fd5b610114600480360381019061010f9190611882565b61036b565b604051610121919061193c565b60405180910390f35b610144600480360381019061013f9190611957565b610423565b6040516101519190611993565b60405180910390f35b610174600480360381019061016f91906119ae565b61049b565b604051610182929190611b6a565b60405180910390f35b6101a560048036038101906101a09190611bd7565b610730565b6040516101b2919061193c565b60405180910390f35b6101d560048036038101906101d091906119ae565b610757565b005b6101f160048036038101906101ec9190611c04565b610b37565b6040516101fe9190611c40565b60405180910390f35b610221600480360381019061021c9190611c04565b610b75565b60405161022e9190611c40565b60405180910390f35b610251600480360381019061024c91906119ae565b610b8b565b005b61026d60048036038101906102689190611bd7565b611105565b60405161027a9190611c6a565b60405180910390f35b61029d60048036038101906102989190611c85565b61114a565b6040516102aa9190611993565b60405180910390f35b6102cd60048036038101906102c89190611c04565b6111c5565b6040516102da9190611993565b60405180910390f35b6102fd60048036038101906102f89190611c04565b6111e5565b60405161030a9190611df6565b60405180910390f35b61031b61129a565b6040516103289190611c40565b60405180910390f35b6103396112f9565b6040516103469190611c40565b60405180910390f35b61036960048036038101906103649190611ef9565b6112ff565b005b60008082905060005b85518110156103fe57600085828151811061039257610391611f55565b5b6020026020010151036103ca576103c38682815181106103b5576103b4611f55565b5b60200260200101518361114a565b91506103f1565b6103ee828783815181106103e1576103e0611f55565b5b602002602001015161114a565b91505b8080600101915050610374565b5060026000878152602001908152602001600020600201548114915050949350505050565b60006002826040516020016104389190611fa5565b6040516020818303038152906040526040516104549190612031565b602060405180830381855afa158015610471573d6000803e3d6000fd5b5050506040513d601f19601f82011682018060405250810190610494919061205d565b9050919050565b60608060006002600086815260200190815260200160002090506000600182600101546104c891906120b9565b67ffffffffffffffff8111156104e1576104e0611646565b5b60405190808252806020026020018201604052801561050f5781602001602082028036833780820191505090505b50905060006001836001015461052591906120b9565b67ffffffffffffffff81111561053e5761053d611646565b5b60405190808252806020026020018201604052801561056c5781602001602082028036833780820191505090505b50905060007fffffffffffffffffffffffffffffffffffffffffffffffffffffffffffffffff90506000805b856003016000815481106105af576105ae611f55565b5b906000526020600020018054905081101561061d57856003016000815481106105db576105da611f55565b5b9060005260206000200181815481106105f7576105f6611f55565b5b906000526020600020015489036106105780925061061d565b8080600101915050610598565b507fffffffffffffffffffffffffffffffffffffffffffffffffffffffffffffffff821461071e578190506000808290505b6001876001015461066091906120b9565b82101561071b57600061067282610b37565b905087600301838154811061068a57610689611f55565b5b9060005260206000200181815481106106a6576106a5611f55565b5b90600052602060002001548784815181106106c4576106c3611f55565b5b6020026020010181815250506002816106dd919061211c565b8684815181106106f0576106ef611f55565b5b60200260200101818152505082806107079061214d565b93505061071382610b75565b91505061064f565b50505b83839650965050505050509250929050565b60008082141580156107505750600060018361074c9190612195565b8316145b9050919050565b60006002600084815260200190815260200160002090506000816001015467ffffffffffffffff81111561078e5761078d611646565b5b6040519080825280602002602001820160405280156107c157816020015b60608152602001906001900390816107ac5790505b509050816003016000815481106107db576107da611f55565b5b906000526020600020018054905067ffffffffffffffff81111561080257610801611646565b5b6040519080825280602002602001820160405280156108305781602001602082028036833780820191505090505b508160008151811061084557610844611f55565b5b602002602001018190525060005b8160008151811061086757610866611f55565b5b60200260200101515181101561091257600081036108bf57838260008151811061089457610893611f55565b5b602002602001015182815181106108ae576108ad611f55565b5b602002602001018181525050610905565b6108ca600054610423565b826000815181106108de576108dd611f55565b5b602002602001015182815181106108f8576108f7611f55565b5b6020026020010181815250505b8080600101915050610853565b5060018260030160008154811061092c5761092b611f55565b5b906000526020600020018054905061094491906121d8565b8260000181905550600080600190505b6001846001015461096591906120b9565b821015610b2557600283838151811061098157610980611f55565b5b602002602001015151610994919061221c565b67ffffffffffffffff8111156109ad576109ac611646565b5b6040519080825280602002602001820160405280156109db5781602001602082028036833780820191505090505b508382815181106109ef576109ee611f55565b5b602002602001018190525060005b6001848481518110610a1257610a11611f55565b5b602002602001015151610a2591906120b9565b811015610b0357610aaa848481518110610a4257610a41611f55565b5b60200260200101518281518110610a5c57610a5b611f55565b5b6020026020010151858581518110610a7757610a76611f55565b5b6020026020010151600184610a8c919061224d565b81518110610a9d57610a9c611f55565b5b602002602001015161114a565b848381518110610abd57610abc611f55565b5b6020026020010151600283610ad2919061221c565b81518110610ae357610ae2611f55565b5b602002602001018181525050600281610afc919061224d565b90506109fd565b508180610b0f9061214d565b9250508080610b1d9061214d565b915050610954565b610b2f86846112ff565b505050505050565b600080600283610b47919061211c565b03610b6057600182610b59919061224d565b9050610b70565b600182610b6d91906120b9565b90505b919050565b6000600282610b84919061221c565b9050919050565b6000600260008481526020019081526020016000209050610bab82610423565b91507fffffffffffffffffffffffffffffffffffffffffffffffffffffffffffffffff816000015403610dde576000816001015403610dce576000600267ffffffffffffffff811115610c0157610c00611646565b5b604051908082528060200260200182016040528015610c2f5781602001602082028036833780820191505090505b5090508281600081518110610c4757610c46611f55565b5b602002602001018181525050610c5e600054610423565b81600181518110610c7257610c71611f55565b5b6020026020010181815250508160030181908060018154018082558091505060019003906000526020600020016000909190919091509080519060200190610cbb92919061152f565b50816001016000815480929190610cd19061214d565b919050555060018260000181905550816003016040518060200160405280610d2f84600081518110610d0657610d05611f55565b5b602002602001015185600181518110610d2257610d21611f55565b5b602002602001015161114a565b81525090806001815401808255809150506001900390600052602060002001600090919091909150906001610d6592919061157c565b50816001016000815480929190610d7b9061214d565b9190505550610dc081600081518110610d9757610d96611f55565b5b602002602001015182600181518110610db357610db2611f55565b5b602002602001015161114a565b826002018190555050610dd9565b610dd88383610757565b5b611100565b6000816000015490508282600301600081548110610dff57610dfe611f55565b5b906000526020600020018281548110610e1b57610e1a611f55565b5b90600052602060002001819055506000806001905060008390505b60018560030180549050610e4a91906120b9565b83101561102f576000610e5c82610b37565b90506000610e6983610b75565b90506000600284610e7a919061211c565b03610f4657610f01876003018681548110610e9857610e97611f55565b5b906000526020600020018481548110610eb457610eb3611f55565b5b9060005260206000200154886003018781548110610ed557610ed4611f55565b5b906000526020600020018481548110610ef157610ef0611f55565b5b906000526020600020015461114a565b876003018581548110610f1757610f16611f55565b5b906000526020600020018281548110610f3357610f32611f55565b5b9060005260206000200181905550611009565b610fc8876003018681548110610f5f57610f5e611f55565b5b906000526020600020018381548110610f7b57610f7a611f55565b5b9060005260206000200154886003018781548110610f9c57610f9b611f55565b5b906000526020600020018581548110610fb857610fb7611f55565b5b906000526020600020015461114a565b876003018581548110610fde57610fdd611f55565b5b906000526020600020018281548110610ffa57610ff9611f55565b5b90600052602060002001819055505b80925084806110179061214d565b95505083806110259061214d565b9450505050610e36565b84600001600081548092919061104490612281565b9190505550846003016000815481106110605761105f611f55565b5b90600052602060002001805490508560000154126110a2577fffffffffffffffffffffffffffffffffffffffffffffffffffffffffffffffff85600001819055505b84600301600186600301805490506110ba91906120b9565b815481106110cb576110ca611f55565b5b906000526020600020016000815481106110e8576110e7611f55565b5b90600052602060002001548560020181905550505050505b505050565b600061111082610730565b1561111d57819050611145565b6000600190505b828112156111405760028161113991906122c9565b9050611124565b809150505b919050565b600060028383604051602001611161929190612341565b60405160208183030381529060405260405161117d9190612031565b602060405180830381855afa15801561119a573d6000803e3d6000fd5b5050506040513d601f19601f820116820180604052508101906111bd919061205d565b905092915050565b600060026000838152602001908152602001600020600201549050919050565b606060026000838152602001908152602001600020600301805480602002602001604051908101604052809291908181526020016000905b8282101561128f5783829060005260206000200180548060200260200160405190810160405280929190818152602001828054801561127b57602002820191906000526020600020905b815481526020019060010190808311611267575b50505050508152602001906001019061121d565b505050509050919050565b6000600160008154809291906112af9061214d565b91905055507fffffffffffffffffffffffffffffffffffffffffffffffffffffffffffffffff60026000600154815260200190815260200160002060000181905550600154905090565b60015481565b60006002600084815260200190815260200160002090506113f28160030160018360030160008154811061133657611335611f55565b5b906000526020600020018054905061134e91906120b9565b8154811061135f5761135e611f55565b5b9060005260206000200160008154811061137c5761137b611f55565b5b9060005260206000200154836001846003016000815481106113a1576113a0611f55565b5b90600052602060002001805490506113b991906120b9565b815181106113ca576113c9611f55565b5b60200260200101516000815181106113e5576113e4611f55565b5b602002602001015161114a565b816002018190555060005b82518110156114c25760005b83828151811061141c5761141b611f55565b5b6020026020010151518110156114b45782600301828154811061144257611441611f55565b5b9060005260206000200184838151811061145f5761145e611f55565b5b6020026020010151828151811061147957611478611f55565b5b602002602001015190806001815401808255809150506001900390600052602060002001600090919091909150558080600101915050611409565b5080806001019150506113fd565b5080600301604051806020016040528083600201548152509080600181540180825580915050600190039060005260206000200160009091909190915090600161150d92919061157c565b506001816001016000828254611523919061224d565b92505081905550505050565b82805482825590600052602060002090810192821561156b579160200282015b8281111561156a57825182559160200191906001019061154f565b5b50905061157891906115c9565b5090565b8280548282559060005260206000209081019282156115b8579160200282015b828111156115b757825182559160200191906001019061159c565b5b5090506115c591906115c9565b5090565b5b808211156115e25760008160009055506001016115ca565b5090565b6000604051905090565b600080fd5b600080fd5b6000819050919050565b61160d816115fa565b811461161857600080fd5b50565b60008135905061162a81611604565b92915050565b600080fd5b6000601f19601f8301169050919050565b7f4e487b7100000000000000000000000000000000000000000000000000000000600052604160045260246000fd5b61167e82611635565b810181811067ffffffffffffffff8211171561169d5761169c611646565b5b80604052505050565b60006116b06115e6565b90506116bc8282611675565b919050565b600067ffffffffffffffff8211156116dc576116db611646565b5b602082029050602081019050919050565b600080fd5b6000819050919050565b611705816116f2565b811461171057600080fd5b50565b600081359050611722816116fc565b92915050565b600061173b611736846116c1565b6116a6565b9050808382526020820190506020840283018581111561175e5761175d6116ed565b5b835b8181101561178757806117738882611713565b845260208401935050602081019050611760565b5050509392505050565b600082601f8301126117a6576117a5611630565b5b81356117b6848260208601611728565b91505092915050565b600067ffffffffffffffff8211156117da576117d9611646565b5b602082029050602081019050919050565b60006117fe6117f9846117bf565b6116a6565b90508083825260208201905060208402830185811115611821576118206116ed565b5b835b8181101561184a5780611836888261161b565b845260208401935050602081019050611823565b5050509392505050565b600082601f83011261186957611868611630565b5b81356118798482602086016117eb565b91505092915050565b6000806000806080858703121561189c5761189b6115f0565b5b60006118aa8782880161161b565b945050602085013567ffffffffffffffff8111156118cb576118ca6115f5565b5b6118d787828801611791565b935050604085013567ffffffffffffffff8111156118f8576118f76115f5565b5b61190487828801611854565b925050606061191587828801611713565b91505092959194509250565b60008115159050919050565b61193681611921565b82525050565b6000602082019050611951600083018461192d565b92915050565b60006020828403121561196d5761196c6115f0565b5b600061197b84828501611713565b91505092915050565b61198d816116f2565b82525050565b60006020820190506119a86000830184611984565b92915050565b600080604083850312156119c5576119c46115f0565b5b60006119d38582860161161b565b92505060206119e485828601611713565b9150509250929050565b600081519050919050565b600082825260208201905092915050565b6000819050602082019050919050565b611a23816116f2565b82525050565b6000611a358383611a1a565b60208301905092915050565b6000602082019050919050565b6000611a59826119ee565b611a6381856119f9565b9350611a6e83611a0a565b8060005b83811015611a9f578151611a868882611a29565b9750611a9183611a41565b925050600181019050611a72565b5085935050505092915050565b600081519050919050565b600082825260208201905092915050565b6000819050602082019050919050565b611ae1816115fa565b82525050565b6000611af38383611ad8565b60208301905092915050565b6000602082019050919050565b6000611b1782611aac565b611b218185611ab7565b9350611b2c83611ac8565b8060005b83811015611b5d578151611b448882611ae7565b9750611b4f83611aff565b925050600181019050611b30565b5085935050505092915050565b60006040820190508181036000830152611b848185611a4e565b90508181036020830152611b988184611b0c565b90509392505050565b6000819050919050565b611bb481611ba1565b8114611bbf57600080fd5b50565b600081359050611bd181611bab565b92915050565b600060208284031215611bed57611bec6115f0565b5b6000611bfb84828501611bc2565b91505092915050565b600060208284031215611c1a57611c196115f0565b5b6000611c288482850161161b565b91505092915050565b611c3a816115fa565b82525050565b6000602082019050611c556000830184611c31565b92915050565b611c6481611ba1565b82525050565b6000602082019050611c7f6000830184611c5b565b92915050565b60008060408385031215611c9c57611c9b6115f0565b5b6000611caa85828601611713565b9250506020611cbb85828601611713565b9150509250929050565b600081519050919050565b600082825260208201905092915050565b6000819050602082019050919050565b600082825260208201905092915050565b6000611d0d826119ee565b611d178185611cf1565b9350611d2283611a0a565b8060005b83811015611d53578151611d3a8882611a29565b9750611d4583611a41565b925050600181019050611d26565b5085935050505092915050565b6000611d6c8383611d02565b905092915050565b6000602082019050919050565b6000611d8c82611cc5565b611d968185611cd0565b935083602082028501611da885611ce1565b8060005b85811015611de45784840389528151611dc58582611d60565b9450611dd083611d74565b925060208a01995050600181019050611dac565b50829750879550505050505092915050565b60006020820190508181036000830152611e108184611d81565b905092915050565b600067ffffffffffffffff821115611e3357611e32611646565b5b602082029050602081019050919050565b6000611e57611e5284611e18565b6116a6565b90508083825260208201905060208402830185811115611e7a57611e796116ed565b5b835b81811015611ec157803567ffffffffffffffff811115611e9f57611e9e611630565b5b808601611eac8982611791565b85526020850194505050602081019050611e7c565b5050509392505050565b600082601f830112611ee057611edf611630565b5b8135611ef0848260208601611e44565b91505092915050565b60008060408385031215611f1057611f0f6115f0565b5b6000611f1e8582860161161b565b925050602083013567ffffffffffffffff811115611f3f57611f3e6115f5565b5b611f4b85828601611ecb565b9150509250929050565b7f4e487b7100000000000000000000000000000000000000000000000000000000600052603260045260246000fd5b6000819050919050565b611f9f611f9a826116f2565b611f84565b82525050565b6000611fb18284611f8e565b60208201915081905092915050565b600081519050919050565b600081905092915050565b60005b83811015611ff4578082015181840152602081019050611fd9565b60008484015250505050565b600061200b82611fc0565b6120158185611fcb565b9350612025818560208601611fd6565b80840191505092915050565b600061203d8284612000565b915081905092915050565b600081519050612057816116fc565b92915050565b600060208284031215612073576120726115f0565b5b600061208184828501612048565b91505092915050565b7f4e487b7100000000000000000000000000000000000000000000000000000000600052601160045260246000fd5b60006120c4826115fa565b91506120cf836115fa565b92508282039050818111156120e7576120e661208a565b5b92915050565b7f4e487b7100000000000000000000000000000000000000000000000000000000600052601260045260246000fd5b6000612127826115fa565b9150612132836115fa565b925082612142576121416120ed565b5b828206905092915050565b6000612158826115fa565b91507fffffffffffffffffffffffffffffffffffffffffffffffffffffffffffffffff820361218a5761218961208a565b5b600182019050919050565b60006121a082611ba1565b91506121ab83611ba1565b92508282039050818112600084121682821360008512151617156121d2576121d161208a565b5b92915050565b60006121e382611ba1565b91506121ee83611ba1565b9250828201905082811215600083121683821260008412151617156122165761221561208a565b5b92915050565b6000612227826115fa565b9150612232836115fa565b925082612242576122416120ed565b5b828204905092915050565b6000612258826115fa565b9150612263836115fa565b925082820190508082111561227b5761227a61208a565b5b92915050565b600061228c82611ba1565b91507f7fffffffffffffffffffffffffffffffffffffffffffffffffffffffffffffff82036122be576122bd61208a565b5b600182019050919050565b60006122d482611ba1565b91506122df83611ba1565b92508282026122ed81611ba1565b91507f800000000000000000000000000000000000000000000000000000000000000084146000841216156123255761232461208a565b5b828205841483151761233a5761233961208a565b5b5092915050565b600061234d8285611f8e565b60208201915061235d8284611f8e565b602082019150819050939250505056fea26469706673582212202e866c0c7e13424966f0fcfe79b5e5f395a13d749c75d7ff46a134d7b35b62c664736f6c63430008180033",
  "linkReferences": {},
  "deployedLinkReferences": {}
}