{
  "_format": "hh-sol-artifact-1",
  "contractName": "MerkleTree",
  "sourceName": "contracts/MerkleTree.sol",
  "abi": [
    {
      "inputs": [
        {
          "internalType": "uint256",
          "name": "_treeID",
          "type": "uint256"
        },
        {
          "internalType": "bytes32",
          "name": "data",
          "type": "bytes32"
        }
      ],
      "name": "addElement",
      "outputs": [],
      "stateMutability": "nonpayable",
      "type": "function"
    },
    {
      "inputs": [
        {
          "internalType": "uint256",
          "name": "_treeID",
          "type": "uint256"
        },
        {
          "internalType": "bytes32",
          "name": "leaf",
          "type": "bytes32"
        }
      ],
      "name": "getElementPath",
      "outputs": [
        {
          "internalType": "bytes32[]",
          "name": "",
          "type": "bytes32[]"
        },
        {
          "internalType": "uint256[]",
          "name": "",
          "type": "uint256[]"
        }
      ],
      "stateMutability": "view",
      "type": "function"
    },
    {
      "inputs": [
        {
          "internalType": "uint256",
          "name": "index",
          "type": "uint256"
        }
      ],
      "name": "getParent",
      "outputs": [
        {
          "internalType": "uint256",
          "name": "",
          "type": "uint256"
        }
      ],
      "stateMutability": "pure",
      "type": "function"
    },
    {
      "inputs": [
        {
          "internalType": "uint256",
          "name": "_treeID",
          "type": "uint256"
        }
      ],
      "name": "getRoot",
      "outputs": [
        {
          "internalType": "bytes32",
          "name": "",
          "type": "bytes32"
        }
      ],
      "stateMutability": "view",
      "type": "function"
    },
    {
      "inputs": [
        {
          "internalType": "uint256",
          "name": "index",
          "type": "uint256"
        }
      ],
      "name": "getSibling",
      "outputs": [
        {
          "internalType": "uint256",
          "name": "",
          "type": "uint256"
        }
      ],
      "stateMutability": "pure",
      "type": "function"
    },
    {
      "inputs": [
        {
          "internalType": "bytes32",
          "name": "left",
          "type": "bytes32"
        },
        {
          "internalType": "bytes32",
          "name": "right",
          "type": "bytes32"
        }
      ],
      "name": "hashBytes32",
      "outputs": [
        {
          "internalType": "bytes32",
          "name": "",
          "type": "bytes32"
        }
      ],
      "stateMutability": "pure",
      "type": "function"
    },
    {
      "inputs": [],
      "name": "initTreeAndGetID",
      "outputs": [
        {
          "internalType": "uint256",
          "name": "",
          "type": "uint256"
        }
      ],
      "stateMutability": "nonpayable",
      "type": "function"
    },
    {
      "inputs": [
        {
          "internalType": "int256",
          "name": "x",
          "type": "int256"
        }
      ],
      "name": "isPowerOfTwo",
      "outputs": [
        {
          "internalType": "bool",
          "name": "",
          "type": "bool"
        }
      ],
      "stateMutability": "pure",
      "type": "function"
    },
    {
      "inputs": [
        {
          "internalType": "uint256",
          "name": "_treeID",
          "type": "uint256"
        },
        {
          "internalType": "bytes32",
          "name": "data",
          "type": "bytes32"
        }
      ],
      "name": "makePaddingTree",
      "outputs": [],
      "stateMutability": "nonpayable",
      "type": "function"
    },
    {
      "inputs": [
        {
          "internalType": "uint256",
          "name": "_treeID",
          "type": "uint256"
        },
        {
          "internalType": "bytes32[][]",
          "name": "newTree",
          "type": "bytes32[][]"
        }
      ],
      "name": "mergeTreesAndUpdateRoot",
      "outputs": [],
      "stateMutability": "nonpayable",
      "type": "function"
    },
    {
      "inputs": [
        {
          "internalType": "int256",
          "name": "x",
          "type": "int256"
        }
      ],
      "name": "nextPowerOfTwo",
      "outputs": [
        {
          "internalType": "int256",
          "name": "",
          "type": "int256"
        }
      ],
      "stateMutability": "pure",
      "type": "function"
    },
    {
      "inputs": [
        {
          "internalType": "bytes32",
          "name": "data",
          "type": "bytes32"
        }
      ],
      "name": "sha256Hash",
      "outputs": [
        {
          "internalType": "bytes32",
          "name": "",
          "type": "bytes32"
        }
      ],
      "stateMutability": "pure",
      "type": "function"
    },
    {
      "inputs": [],
      "name": "treeCount",
      "outputs": [
        {
          "internalType": "uint256",
          "name": "",
          "type": "uint256"
        }
      ],
      "stateMutability": "view",
      "type": "function"
    },
    {
      "inputs": [
        {
          "internalType": "uint256",
          "name": "_treeID",
          "type": "uint256"
        },
        {
          "internalType": "bytes32[]",
          "name": "path",
          "type": "bytes32[]"
        },
        {
          "internalType": "uint256[]",
          "name": "hashOrder",
          "type": "uint256[]"
        },
        {
          "internalType": "bytes32",
          "name": "leaf",
          "type": "bytes32"
        }
      ],
      "name": "verifyPath",
      "outputs": [
        {
          "internalType": "bool",
          "name": "",
          "type": "bool"
        }
      ],
      "stateMutability": "view",
      "type": "function"
    }
  ],
  "bytecode": "0x60806040527f736f6d654f7468657252616e646f6d537472696e67466f7250616464696e6700600055600060015534801561003957600080fd5b5061216b806100496000396000f3fe608060405234801561001057600080fd5b50600436106100ea5760003560e01c80634a1aec071161008c5780639b24b3b0116100665780639b24b3b0146102a8578063d59a9e06146102d8578063fea3b6c3146102f6578063ff6bdbfe14610314576100ea565b80634a1aec071461022c578063502949aa1461024857806357f0129414610278576100ea565b806333c8826b116100c857806333c8826b14610180578063357cbfc5146101b057806339d74b19146101cc578063414533de146101fc576100ea565b806327798ea3146100ef5780632ddda2d21461011f578063310557c61461014f575b600080fd5b6101096004803603810190610104919061179d565b610330565b6040516101169190611857565b60405180910390f35b61013960048036038101906101349190611872565b6103e8565b60405161014691906118ae565b60405180910390f35b610169600480360381019061016491906118c9565b610460565b604051610177929190611a85565b60405180910390f35b61019a60048036038101906101959190611af2565b610700565b6040516101a79190611857565b60405180910390f35b6101ca60048036038101906101c591906118c9565b610727565b005b6101e660048036038101906101e19190611b1f565b610b07565b6040516101f39190611b5b565b60405180910390f35b61021660048036038101906102119190611b1f565b610b45565b6040516102239190611b5b565b60405180910390f35b610246600480360381019061024191906118c9565b610b5b565b005b610262600480360381019061025d9190611af2565b6110d5565b60405161026f9190611b85565b60405180910390f35b610292600480360381019061028d9190611ba0565b61111a565b60405161029f91906118ae565b60405180910390f35b6102c260048036038101906102bd9190611b1f565b611195565b6040516102cf91906118ae565b60405180910390f35b6102e06111b5565b6040516102ed9190611b5b565b60405180910390f35b6102fe611214565b60405161030b9190611b5b565b60405180910390f35b61032e60048036038101906103299190611cc1565b61121a565b005b60008082905060005b85518110156103c357600085828151811061035757610356611d1d565b5b60200260200101510361038f5761038886828151811061037a57610379611d1d565b5b60200260200101518361111a565b91506103b6565b6103b3828783815181106103a6576103a5611d1d565b5b602002602001015161111a565b91505b8080600101915050610339565b5060026000878152602001908152602001600020600201548114915050949350505050565b60006002826040516020016103fd9190611d6d565b6040516020818303038152906040526040516104199190611df9565b602060405180830381855afa158015610436573d6000803e3d6000fd5b5050506040513d601f19601f820116820180604052508101906104599190611e25565b9050919050565b606080600060026000868152602001908152602001600020905060006001826001015461048d9190611e81565b67ffffffffffffffff8111156104a6576104a5611561565b5b6040519080825280602002602001820160405280156104d45781602001602082028036833780820191505090505b5090506000600183600101546104ea9190611e81565b67ffffffffffffffff81111561050357610502611561565b5b6040519080825280602002602001820160405280156105315781602001602082028036833780820191505090505b50905061053d866103e8565b955060007fffffffffffffffffffffffffffffffffffffffffffffffffffffffffffffffff90506000805b8560030160008154811061057f5761057e611d1d565b5b90600052602060002001805490508110156105ed57856003016000815481106105ab576105aa611d1d565b5b9060005260206000200181815481106105c7576105c6611d1d565b5b906000526020600020015489036105e0578092506105ed565b8080600101915050610568565b507fffffffffffffffffffffffffffffffffffffffffffffffffffffffffffffffff82146106ee578190506000808290505b600187600101546106309190611e81565b8210156106eb57600061064282610b07565b905087600301838154811061065a57610659611d1d565b5b90600052602060002001818154811061067657610675611d1d565b5b906000526020600020015487848151811061069457610693611d1d565b5b6020026020010181815250506002816106ad9190611ee4565b8684815181106106c0576106bf611d1d565b5b60200260200101818152505082806106d790611f15565b9350506106e382610b45565b91505061061f565b50505b83839650965050505050509250929050565b60008082141580156107205750600060018361071c9190611f5d565b8316145b9050919050565b60006002600084815260200190815260200160002090506000816001015467ffffffffffffffff81111561075e5761075d611561565b5b60405190808252806020026020018201604052801561079157816020015b606081526020019060019003908161077c5790505b509050816003016000815481106107ab576107aa611d1d565b5b906000526020600020018054905067ffffffffffffffff8111156107d2576107d1611561565b5b6040519080825280602002602001820160405280156108005781602001602082028036833780820191505090505b508160008151811061081557610814611d1d565b5b602002602001018190525060005b8160008151811061083757610836611d1d565b5b6020026020010151518110156108e2576000810361088f57838260008151811061086457610863611d1d565b5b6020026020010151828151811061087e5761087d611d1d565b5b6020026020010181815250506108d5565b61089a6000546103e8565b826000815181106108ae576108ad611d1d565b5b602002602001015182815181106108c8576108c7611d1d565b5b6020026020010181815250505b8080600101915050610823565b506001826003016000815481106108fc576108fb611d1d565b5b90600052602060002001805490506109149190611fa0565b8260000181905550600080600190505b600184600101546109359190611e81565b821015610af557600283838151811061095157610950611d1d565b5b6020026020010151516109649190611fe4565b67ffffffffffffffff81111561097d5761097c611561565b5b6040519080825280602002602001820160405280156109ab5781602001602082028036833780820191505090505b508382815181106109bf576109be611d1d565b5b602002602001018190525060005b60018484815181106109e2576109e1611d1d565b5b6020026020010151516109f59190611e81565b811015610ad357610a7a848481518110610a1257610a11611d1d565b5b60200260200101518281518110610a2c57610a2b611d1d565b5b6020026020010151858581518110610a4757610a46611d1d565b5b6020026020010151600184610a5c9190612015565b81518110610a6d57610a6c611d1d565b5b602002602001015161111a565b848381518110610a8d57610a8c611d1d565b5b6020026020010151600283610aa29190611fe4565b81518110610ab357610ab2611d1d565b5b602002602001018181525050600281610acc9190612015565b90506109cd565b508180610adf90611f15565b9250508080610aed90611f15565b915050610924565b610aff868461121a565b505050505050565b600080600283610b179190611ee4565b03610b3057600182610b299190612015565b9050610b40565b600182610b3d9190611e81565b90505b919050565b6000600282610b549190611fe4565b9050919050565b6000600260008481526020019081526020016000209050610b7b826103e8565b91507fffffffffffffffffffffffffffffffffffffffffffffffffffffffffffffffff816000015403610dae576000816001015403610d9e576000600267ffffffffffffffff811115610bd157610bd0611561565b5b604051908082528060200260200182016040528015610bff5781602001602082028036833780820191505090505b5090508281600081518110610c1757610c16611d1d565b5b602002602001018181525050610c2e6000546103e8565b81600181518110610c4257610c41611d1d565b5b6020026020010181815250508160030181908060018154018082558091505060019003906000526020600020016000909190919091509080519060200190610c8b92919061144a565b50816001016000815480929190610ca190611f15565b919050555060018260000181905550816003016040518060200160405280610cff84600081518110610cd657610cd5611d1d565b5b602002602001015185600181518110610cf257610cf1611d1d565b5b602002602001015161111a565b81525090806001815401808255809150506001900390600052602060002001600090919091909150906001610d35929190611497565b50816001016000815480929190610d4b90611f15565b9190505550610d9081600081518110610d6757610d66611d1d565b5b602002602001015182600181518110610d8357610d82611d1d565b5b602002602001015161111a565b826002018190555050610da9565b610da88383610727565b5b6110d0565b6000816000015490508282600301600081548110610dcf57610dce611d1d565b5b906000526020600020018281548110610deb57610dea611d1d565b5b90600052602060002001819055506000806001905060008390505b60018560030180549050610e1a9190611e81565b831015610fff576000610e2c82610b07565b90506000610e3983610b45565b90506000600284610e4a9190611ee4565b03610f1657610ed1876003018681548110610e6857610e67611d1d565b5b906000526020600020018481548110610e8457610e83611d1d565b5b9060005260206000200154886003018781548110610ea557610ea4611d1d565b5b906000526020600020018481548110610ec157610ec0611d1d565b5b906000526020600020015461111a565b876003018581548110610ee757610ee6611d1d565b5b906000526020600020018281548110610f0357610f02611d1d565b5b9060005260206000200181905550610fd9565b610f98876003018681548110610f2f57610f2e611d1d565b5b906000526020600020018381548110610f4b57610f4a611d1d565b5b9060005260206000200154886003018781548110610f6c57610f6b611d1d565b5b906000526020600020018581548110610f8857610f87611d1d565b5b906000526020600020015461111a565b876003018581548110610fae57610fad611d1d565b5b906000526020600020018281548110610fca57610fc9611d1d565b5b90600052602060002001819055505b8092508480610fe790611f15565b9550508380610ff590611f15565b9450505050610e06565b84600001600081548092919061101490612049565b9190505550846003016000815481106110305761102f611d1d565b5b9060005260206000200180549050856000015412611072577fffffffffffffffffffffffffffffffffffffffffffffffffffffffffffffffff85600001819055505b846003016001866003018054905061108a9190611e81565b8154811061109b5761109a611d1d565b5b906000526020600020016000815481106110b8576110b7611d1d565b5b90600052602060002001548560020181905550505050505b505050565b60006110e082610700565b156110ed57819050611115565b6000600190505b82811215611110576002816111099190612091565b90506110f4565b809150505b919050565b600060028383604051602001611131929190612109565b60405160208183030381529060405260405161114d9190611df9565b602060405180830381855afa15801561116a573d6000803e3d6000fd5b5050506040513d601f19601f8201168201806040525081019061118d9190611e25565b905092915050565b600060026000838152602001908152602001600020600201549050919050565b6000600160008154809291906111ca90611f15565b91905055507fffffffffffffffffffffffffffffffffffffffffffffffffffffffffffffffff60026000600154815260200190815260200160002060000181905550600154905090565b60015481565b600060026000848152602001908152602001600020905061130d8160030160018360030160008154811061125157611250611d1d565b5b90600052602060002001805490506112699190611e81565b8154811061127a57611279611d1d565b5b9060005260206000200160008154811061129757611296611d1d565b5b9060005260206000200154836001846003016000815481106112bc576112bb611d1d565b5b90600052602060002001805490506112d49190611e81565b815181106112e5576112e4611d1d565b5b6020026020010151600081518110611300576112ff611d1d565b5b602002602001015161111a565b816002018190555060005b82518110156113dd5760005b83828151811061133757611336611d1d565b5b6020026020010151518110156113cf5782600301828154811061135d5761135c611d1d565b5b9060005260206000200184838151811061137a57611379611d1d565b5b6020026020010151828151811061139457611393611d1d565b5b602002602001015190806001815401808255809150506001900390600052602060002001600090919091909150558080600101915050611324565b508080600101915050611318565b50806003016040518060200160405280836002015481525090806001815401808255809150506001900390600052602060002001600090919091909150906001611428929190611497565b50600181600101600082825461143e9190612015565b92505081905550505050565b828054828255906000526020600020908101928215611486579160200282015b8281111561148557825182559160200191906001019061146a565b5b50905061149391906114e4565b5090565b8280548282559060005260206000209081019282156114d3579160200282015b828111156114d25782518255916020019190600101906114b7565b5b5090506114e091906114e4565b5090565b5b808211156114fd5760008160009055506001016114e5565b5090565b6000604051905090565b600080fd5b600080fd5b6000819050919050565b61152881611515565b811461153357600080fd5b50565b6000813590506115458161151f565b92915050565b600080fd5b6000601f19601f8301169050919050565b7f4e487b7100000000000000000000000000000000000000000000000000000000600052604160045260246000fd5b61159982611550565b810181811067ffffffffffffffff821117156115b8576115b7611561565b5b80604052505050565b60006115cb611501565b90506115d78282611590565b919050565b600067ffffffffffffffff8211156115f7576115f6611561565b5b602082029050602081019050919050565b600080fd5b6000819050919050565b6116208161160d565b811461162b57600080fd5b50565b60008135905061163d81611617565b92915050565b6000611656611651846115dc565b6115c1565b9050808382526020820190506020840283018581111561167957611678611608565b5b835b818110156116a2578061168e888261162e565b84526020840193505060208101905061167b565b5050509392505050565b600082601f8301126116c1576116c061154b565b5b81356116d1848260208601611643565b91505092915050565b600067ffffffffffffffff8211156116f5576116f4611561565b5b602082029050602081019050919050565b6000611719611714846116da565b6115c1565b9050808382526020820190506020840283018581111561173c5761173b611608565b5b835b8181101561176557806117518882611536565b84526020840193505060208101905061173e565b5050509392505050565b600082601f8301126117845761178361154b565b5b8135611794848260208601611706565b91505092915050565b600080600080608085870312156117b7576117b661150b565b5b60006117c587828801611536565b945050602085013567ffffffffffffffff8111156117e6576117e5611510565b5b6117f2878288016116ac565b935050604085013567ffffffffffffffff81111561181357611812611510565b5b61181f8782880161176f565b92505060606118308782880161162e565b91505092959194509250565b60008115159050919050565b6118518161183c565b82525050565b600060208201905061186c6000830184611848565b92915050565b6000602082840312156118885761188761150b565b5b60006118968482850161162e565b91505092915050565b6118a88161160d565b82525050565b60006020820190506118c3600083018461189f565b92915050565b600080604083850312156118e0576118df61150b565b5b60006118ee85828601611536565b92505060206118ff8582860161162e565b9150509250929050565b600081519050919050565b600082825260208201905092915050565b6000819050602082019050919050565b61193e8161160d565b82525050565b60006119508383611935565b60208301905092915050565b6000602082019050919050565b600061197482611909565b61197e8185611914565b935061198983611925565b8060005b838110156119ba5781516119a18882611944565b97506119ac8361195c565b92505060018101905061198d565b5085935050505092915050565b600081519050919050565b600082825260208201905092915050565b6000819050602082019050919050565b6119fc81611515565b82525050565b6000611a0e83836119f3565b60208301905092915050565b6000602082019050919050565b6000611a32826119c7565b611a3c81856119d2565b9350611a47836119e3565b8060005b83811015611a78578151611a5f8882611a02565b9750611a6a83611a1a565b925050600181019050611a4b565b5085935050505092915050565b60006040820190508181036000830152611a9f8185611969565b90508181036020830152611ab38184611a27565b90509392505050565b6000819050919050565b611acf81611abc565b8114611ada57600080fd5b50565b600081359050611aec81611ac6565b92915050565b600060208284031215611b0857611b0761150b565b5b6000611b1684828501611add565b91505092915050565b600060208284031215611b3557611b3461150b565b5b6000611b4384828501611536565b91505092915050565b611b5581611515565b82525050565b6000602082019050611b706000830184611b4c565b92915050565b611b7f81611abc565b82525050565b6000602082019050611b9a6000830184611b76565b92915050565b60008060408385031215611bb757611bb661150b565b5b6000611bc58582860161162e565b9250506020611bd68582860161162e565b9150509250929050565b600067ffffffffffffffff821115611bfb57611bfa611561565b5b602082029050602081019050919050565b6000611c1f611c1a84611be0565b6115c1565b90508083825260208201905060208402830185811115611c4257611c41611608565b5b835b81811015611c8957803567ffffffffffffffff811115611c6757611c6661154b565b5b808601611c7489826116ac565b85526020850194505050602081019050611c44565b5050509392505050565b600082601f830112611ca857611ca761154b565b5b8135611cb8848260208601611c0c565b91505092915050565b60008060408385031215611cd857611cd761150b565b5b6000611ce685828601611536565b925050602083013567ffffffffffffffff811115611d0757611d06611510565b5b611d1385828601611c93565b9150509250929050565b7f4e487b7100000000000000000000000000000000000000000000000000000000600052603260045260246000fd5b6000819050919050565b611d67611d628261160d565b611d4c565b82525050565b6000611d798284611d56565b60208201915081905092915050565b600081519050919050565b600081905092915050565b60005b83811015611dbc578082015181840152602081019050611da1565b60008484015250505050565b6000611dd382611d88565b611ddd8185611d93565b9350611ded818560208601611d9e565b80840191505092915050565b6000611e058284611dc8565b915081905092915050565b600081519050611e1f81611617565b92915050565b600060208284031215611e3b57611e3a61150b565b5b6000611e4984828501611e10565b91505092915050565b7f4e487b7100000000000000000000000000000000000000000000000000000000600052601160045260246000fd5b6000611e8c82611515565b9150611e9783611515565b9250828203905081811115611eaf57611eae611e52565b5b92915050565b7f4e487b7100000000000000000000000000000000000000000000000000000000600052601260045260246000fd5b6000611eef82611515565b9150611efa83611515565b925082611f0a57611f09611eb5565b5b828206905092915050565b6000611f2082611515565b91507fffffffffffffffffffffffffffffffffffffffffffffffffffffffffffffffff8203611f5257611f51611e52565b5b600182019050919050565b6000611f6882611abc565b9150611f7383611abc565b9250828203905081811260008412168282136000851215161715611f9a57611f99611e52565b5b92915050565b6000611fab82611abc565b9150611fb683611abc565b925082820190508281121560008312168382126000841215161715611fde57611fdd611e52565b5b92915050565b6000611fef82611515565b9150611ffa83611515565b92508261200a57612009611eb5565b5b828204905092915050565b600061202082611515565b915061202b83611515565b925082820190508082111561204357612042611e52565b5b92915050565b600061205482611abc565b91507f7fffffffffffffffffffffffffffffffffffffffffffffffffffffffffffffff820361208657612085611e52565b5b600182019050919050565b600061209c82611abc565b91506120a783611abc565b92508282026120b581611abc565b91507f800000000000000000000000000000000000000000000000000000000000000084146000841216156120ed576120ec611e52565b5b828205841483151761210257612101611e52565b5b5092915050565b60006121158285611d56565b6020820191506121258284611d56565b602082019150819050939250505056fea26469706673582212204a03871dd966dff36feeb2acfa84278710ab56f897759a22c1aa5093b054159e64736f6c63430008180033",
  "linkReferences": {},
  "deployedLinkReferences": {}
}